10753065096485303032022                                                                                                                                                                       
2022110019         0000000010122757676CORTES ULLOA LORENA AMALIA              ALCALDE HERNAN PRIETO CASA 14 LOTE E    PIRQUE              SANTIAGO            000001110000000005032022NN      
2022110019         0000000020122757676CORTES ULLOA LORENA AMALIA              ALCALDE HERNAN PRIETO CASA 14 LOTE E    PIRQUE              SANTIAGO            000001110000000005042022NN      
2022110019         0000000030122757676CORTES ULLOA LORENA AMALIA              ALCALDE HERNAN PRIETO CASA 14 LOTE E    PIRQUE              SANTIAGO            000001110000000005052022NN      
2022110019         0000000040122757676CORTES ULLOA LORENA AMALIA              ALCALDE HERNAN PRIETO CASA 14 LOTE E    PIRQUE              SANTIAGO            000001110000000005062022NN      
2022110019         0000000050122757676CORTES ULLOA LORENA AMALIA              ALCALDE HERNAN PRIETO CASA 14 LOTE E    PIRQUE              SANTIAGO            000001110000000005072022NN      
2022110019         0000000060122757676CORTES ULLOA LORENA AMALIA              ALCALDE HERNAN PRIETO CASA 14 LOTE E    PIRQUE              SANTIAGO            000001110000000005082022NN      
2022110019         0000000070122757676CORTES ULLOA LORENA AMALIA              ALCALDE HERNAN PRIETO CASA 14 LOTE E    PIRQUE              SANTIAGO            000001110000000005092022NN      
2022110019         0000000080122757676CORTES ULLOA LORENA AMALIA              ALCALDE HERNAN PRIETO CASA 14 LOTE E    PIRQUE              SANTIAGO            000001110000000005102022NN      
2022110019         0000000090122757676CORTES ULLOA LORENA AMALIA              ALCALDE HERNAN PRIETO CASA 14 LOTE E    PIRQUE              SANTIAGO            000001110000000005112022NN      
2022110019         0000000100122757676CORTES ULLOA LORENA AMALIA              ALCALDE HERNAN PRIETO CASA 14 LOTE E    PIRQUE              SANTIAGO            000001110000000005122022NN      
2022110020         0000000010044383365FLORES AGUILERA JAIME BERNARDO          AV. CONCHA Y TORO 2346 CASA 106         PUENTE ALTO         SANTIAGO            000001110000000005032022NN      
2022110020         0000000020044383365FLORES AGUILERA JAIME BERNARDO          AV. CONCHA Y TORO 2346 CASA 106         PUENTE ALTO         SANTIAGO            000001110000000005042022NN      
2022110020         0000000030044383365FLORES AGUILERA JAIME BERNARDO          AV. CONCHA Y TORO 2346 CASA 106         PUENTE ALTO         SANTIAGO            000001110000000005052022NN      
2022110020         0000000040044383365FLORES AGUILERA JAIME BERNARDO          AV. CONCHA Y TORO 2346 CASA 106         PUENTE ALTO         SANTIAGO            000001110000000005062022NN      
2022110020         0000000050044383365FLORES AGUILERA JAIME BERNARDO          AV. CONCHA Y TORO 2346 CASA 106         PUENTE ALTO         SANTIAGO            000001110000000005072022NN      
2022110020         0000000060044383365FLORES AGUILERA JAIME BERNARDO          AV. CONCHA Y TORO 2346 CASA 106         PUENTE ALTO         SANTIAGO            000001110000000005082022NN      
2022110020         0000000070044383365FLORES AGUILERA JAIME BERNARDO          AV. CONCHA Y TORO 2346 CASA 106         PUENTE ALTO         SANTIAGO            000001110000000005092022NN      
2022110020         0000000080044383365FLORES AGUILERA JAIME BERNARDO          AV. CONCHA Y TORO 2346 CASA 106         PUENTE ALTO         SANTIAGO            000001110000000005102022NN      
2022110020         0000000090044383365FLORES AGUILERA JAIME BERNARDO          AV. CONCHA Y TORO 2346 CASA 106         PUENTE ALTO         SANTIAGO            000001110000000005112022NN      
2022110020         0000000100044383365FLORES AGUILERA JAIME BERNARDO          AV. CONCHA Y TORO 2346 CASA 106         PUENTE ALTO         SANTIAGO            000001110000000005122022NN      
2022110023         0000000010124885647MORENO JARA KARINA PAOLA                MARCOS PEREZ 01290                      PUENTE ALTO         SANTIAGO            000001332000000005032022NN      
2022110023         0000000020124885647MORENO JARA KARINA PAOLA                MARCOS PEREZ 01290                      PUENTE ALTO         SANTIAGO            000001332000000005042022NN      
2022110023         0000000030124885647MORENO JARA KARINA PAOLA                MARCOS PEREZ 01290                      PUENTE ALTO         SANTIAGO            000001332000000005052022NN      
2022110023         0000000040124885647MORENO JARA KARINA PAOLA                MARCOS PEREZ 01290                      PUENTE ALTO         SANTIAGO            000001332000000005062022NN      
2022110023         0000000050124885647MORENO JARA KARINA PAOLA                MARCOS PEREZ 01290                      PUENTE ALTO         SANTIAGO            000001332000000005072022NN      
2022110023         0000000060124885647MORENO JARA KARINA PAOLA                MARCOS PEREZ 01290                      PUENTE ALTO         SANTIAGO            000001332000000005082022NN      
2022110023         0000000070124885647MORENO JARA KARINA PAOLA                MARCOS PEREZ 01290                      PUENTE ALTO         SANTIAGO            000001332000000005092022NN      
2022110023         0000000080124885647MORENO JARA KARINA PAOLA                MARCOS PEREZ 01290                      PUENTE ALTO         SANTIAGO            000001332000000005102022NN      
2022110023         0000000090124885647MORENO JARA KARINA PAOLA                MARCOS PEREZ 01290                      PUENTE ALTO         SANTIAGO            000001332000000005112022NN      
2022110023         0000000100124885647MORENO JARA KARINA PAOLA                MARCOS PEREZ 01290                      PUENTE ALTO         SANTIAGO            000001332000000005122022NN      
2022110024         0000000010153792488ARRIAZA NOVOA ALFREDO FERNANDO          PASAJE LOS VAGONES 0167                 SAN JOSE DE MAIPO   SANTIAGO            000000915000000005032022NN      
2022110024         0000000020153792488ARRIAZA NOVOA ALFREDO FERNANDO          PASAJE LOS VAGONES 0167                 SAN JOSE DE MAIPO   SANTIAGO            000000915000000005042022NN      
2022110024         0000000030153792488ARRIAZA NOVOA ALFREDO FERNANDO          PASAJE LOS VAGONES 0167                 SAN JOSE DE MAIPO   SANTIAGO            000000915000000005052022NN      
2022110024         0000000040153792488ARRIAZA NOVOA ALFREDO FERNANDO          PASAJE LOS VAGONES 0167                 SAN JOSE DE MAIPO   SANTIAGO            000000915000000005062022NN      
2022110024         0000000050153792488ARRIAZA NOVOA ALFREDO FERNANDO          PASAJE LOS VAGONES 0167                 SAN JOSE DE MAIPO   SANTIAGO            000000915000000005072022NN      
2022110024         0000000060153792488ARRIAZA NOVOA ALFREDO FERNANDO          PASAJE LOS VAGONES 0167                 SAN JOSE DE MAIPO   SANTIAGO            000000915000000005082022NN      
2022110024         0000000070153792488ARRIAZA NOVOA ALFREDO FERNANDO          PASAJE LOS VAGONES 0167                 SAN JOSE DE MAIPO   SANTIAGO            000000915000000005092022NN      
2022110024         0000000080153792488ARRIAZA NOVOA ALFREDO FERNANDO          PASAJE LOS VAGONES 0167                 SAN JOSE DE MAIPO   SANTIAGO            000000915000000005102022NN      
2022110024         0000000090153792488ARRIAZA NOVOA ALFREDO FERNANDO          PASAJE LOS VAGONES 0167                 SAN JOSE DE MAIPO   SANTIAGO            000000915000000005112022NN      
2022110024         0000000100153792488ARRIAZA NOVOA ALFREDO FERNANDO          PASAJE LOS VAGONES 0167                 SAN JOSE DE MAIPO   SANTIAGO            000000915000000005122022NN      
2022110026         000000001014189644KHERRERA ZAMORANO GERARDO ALEXIS         AV. EJERCITO LIBERTADOR 2120 CASA 177   PUENTE ALTO         SANTIAGO            000000915000000005032022NN      
2022110026         000000002014189644KHERRERA ZAMORANO GERARDO ALEXIS         AV. EJERCITO LIBERTADOR 2120 CASA 177   PUENTE ALTO         SANTIAGO            000000915000000005042022NN      
2022110026         000000003014189644KHERRERA ZAMORANO GERARDO ALEXIS         AV. EJERCITO LIBERTADOR 2120 CASA 177   PUENTE ALTO         SANTIAGO            000000915000000005052022NN      
2022110026         000000004014189644KHERRERA ZAMORANO GERARDO ALEXIS         AV. EJERCITO LIBERTADOR 2120 CASA 177   PUENTE ALTO         SANTIAGO            000000915000000005062022NN      
2022110026         000000005014189644KHERRERA ZAMORANO GERARDO ALEXIS         AV. EJERCITO LIBERTADOR 2120 CASA 177   PUENTE ALTO         SANTIAGO            000000915000000005072022NN      
2022110026         000000006014189644KHERRERA ZAMORANO GERARDO ALEXIS         AV. EJERCITO LIBERTADOR 2120 CASA 177   PUENTE ALTO         SANTIAGO            000000915000000005082022NN      
2022110026         000000007014189644KHERRERA ZAMORANO GERARDO ALEXIS         AV. EJERCITO LIBERTADOR 2120 CASA 177   PUENTE ALTO         SANTIAGO            000000915000000005092022NN      
2022110026         000000008014189644KHERRERA ZAMORANO GERARDO ALEXIS         AV. EJERCITO LIBERTADOR 2120 CASA 177   PUENTE ALTO         SANTIAGO            000000915000000005102022NN      
2022110026         000000009014189644KHERRERA ZAMORANO GERARDO ALEXIS         AV. EJERCITO LIBERTADOR 2120 CASA 177   PUENTE ALTO         SANTIAGO            000000915000000005112022NN      
2022110026         000000010014189644KHERRERA ZAMORANO GERARDO ALEXIS         AV. EJERCITO LIBERTADOR 2120 CASA 177   PUENTE ALTO         SANTIAGO            000000915000000005122022NN      
2022110075         0000000010141837974ZAPATA CATALAN ANDREA ALEJANDRA         PASAJE SEBASTIAN ELCANO 1492            PUENTE ALTO         SANTIAGO            000001776000000005032022NN      
2022110075         0000000020141837974ZAPATA CATALAN ANDREA ALEJANDRA         PASAJE SEBASTIAN ELCANO 1492            PUENTE ALTO         SANTIAGO            000001776000000005042022NN      
2022110075         0000000030141837974ZAPATA CATALAN ANDREA ALEJANDRA         PASAJE SEBASTIAN ELCANO 1492            PUENTE ALTO         SANTIAGO            000001776000000005052022NN      
2022110075         0000000040141837974ZAPATA CATALAN ANDREA ALEJANDRA         PASAJE SEBASTIAN ELCANO 1492            PUENTE ALTO         SANTIAGO            000001776000000005062022NN      
2022110075         0000000050141837974ZAPATA CATALAN ANDREA ALEJANDRA         PASAJE SEBASTIAN ELCANO 1492            PUENTE ALTO         SANTIAGO            000001776000000005072022NN      
2022110075         0000000060141837974ZAPATA CATALAN ANDREA ALEJANDRA         PASAJE SEBASTIAN ELCANO 1492            PUENTE ALTO         SANTIAGO            000001776000000005082022NN      
2022110075         0000000070141837974ZAPATA CATALAN ANDREA ALEJANDRA         PASAJE SEBASTIAN ELCANO 1492            PUENTE ALTO         SANTIAGO            000001776000000005092022NN      
2022110075         0000000080141837974ZAPATA CATALAN ANDREA ALEJANDRA         PASAJE SEBASTIAN ELCANO 1492            PUENTE ALTO         SANTIAGO            000001776000000005102022NN      
2022110075         0000000090141837974ZAPATA CATALAN ANDREA ALEJANDRA         PASAJE SEBASTIAN ELCANO 1492            PUENTE ALTO         SANTIAGO            000001776000000005112022NN      
2022110075         0000000100141837974ZAPATA CATALAN ANDREA ALEJANDRA         PASAJE SEBASTIAN ELCANO 1492            PUENTE ALTO         SANTIAGO            000001776000000005122022NN      
2022110229         0000000010128889655TAMAYO PARDO CLAUDIA ANDREA             SANTA CECILIA Nº0681                    PUENTE ALTO         SANTIAGO            000002220000000005032022NN      
2022110229         0000000020128889655TAMAYO PARDO CLAUDIA ANDREA             SANTA CECILIA Nº0681                    PUENTE ALTO         SANTIAGO            000002220000000005042022NN      
2022110229         0000000030128889655TAMAYO PARDO CLAUDIA ANDREA             SANTA CECILIA Nº0681                    PUENTE ALTO         SANTIAGO            000002220000000005052022NN      
2022110229         0000000040128889655TAMAYO PARDO CLAUDIA ANDREA             SANTA CECILIA Nº0681                    PUENTE ALTO         SANTIAGO            000002220000000005062022NN      
2022110229         0000000050128889655TAMAYO PARDO CLAUDIA ANDREA             SANTA CECILIA Nº0681                    PUENTE ALTO         SANTIAGO            000002220000000005072022NN      
2022110229         0000000060128889655TAMAYO PARDO CLAUDIA ANDREA             SANTA CECILIA Nº0681                    PUENTE ALTO         SANTIAGO            000002220000000005082022NN      
2022110229         0000000070128889655TAMAYO PARDO CLAUDIA ANDREA             SANTA CECILIA Nº0681                    PUENTE ALTO         SANTIAGO            000002220000000005092022NN      
2022110229         0000000080128889655TAMAYO PARDO CLAUDIA ANDREA             SANTA CECILIA Nº0681                    PUENTE ALTO         SANTIAGO            000002220000000005102022NN      
2022110229         0000000090128889655TAMAYO PARDO CLAUDIA ANDREA             SANTA CECILIA Nº0681                    PUENTE ALTO         SANTIAGO            000002220000000005112022NN      
2022110229         0000000100128889655TAMAYO PARDO CLAUDIA ANDREA             SANTA CECILIA Nº0681                    PUENTE ALTO         SANTIAGO            000002220000000005122022NN      
2022110274         000000001012904215KALDAY LOPEZ ROMMY ANDREA                HUENTELAUQUEN 1028                      PUENTE ALTO         SANTIAGO            000001110000000005032022NN      
2022110274         000000002012904215KALDAY LOPEZ ROMMY ANDREA                HUENTELAUQUEN 1028                      PUENTE ALTO         SANTIAGO            000001110000000005042022NN      
2022110274         000000003012904215KALDAY LOPEZ ROMMY ANDREA                HUENTELAUQUEN 1028                      PUENTE ALTO         SANTIAGO            000001110000000005052022NN      
2022110274         000000004012904215KALDAY LOPEZ ROMMY ANDREA                HUENTELAUQUEN 1028                      PUENTE ALTO         SANTIAGO            000001110000000005062022NN      
2022110274         000000005012904215KALDAY LOPEZ ROMMY ANDREA                HUENTELAUQUEN 1028                      PUENTE ALTO         SANTIAGO            000001110000000005072022NN      
2022110274         000000006012904215KALDAY LOPEZ ROMMY ANDREA                HUENTELAUQUEN 1028                      PUENTE ALTO         SANTIAGO            000001110000000005082022NN      
2022110274         000000007012904215KALDAY LOPEZ ROMMY ANDREA                HUENTELAUQUEN 1028                      PUENTE ALTO         SANTIAGO            000001110000000005092022NN      
2022110274         000000008012904215KALDAY LOPEZ ROMMY ANDREA                HUENTELAUQUEN 1028                      PUENTE ALTO         SANTIAGO            000001110000000005102022NN      
2022110274         000000009012904215KALDAY LOPEZ ROMMY ANDREA                HUENTELAUQUEN 1028                      PUENTE ALTO         SANTIAGO            000001110000000005112022NN      
2022110274         000000010012904215KALDAY LOPEZ ROMMY ANDREA                HUENTELAUQUEN 1028                      PUENTE ALTO         SANTIAGO            000001110000000005122022NN      
2022110311         0000000010186209516DONOSO ROGEL MARIA PAZ                  GIORDANO BRUNO 1438                     PUENTE ALTO         SANTIAGO            000000666000000005032022NN      
2022110311         0000000020186209516DONOSO ROGEL MARIA PAZ                  GIORDANO BRUNO 1438                     PUENTE ALTO         SANTIAGO            000000666000000005042022NN      
2022110311         0000000030186209516DONOSO ROGEL MARIA PAZ                  GIORDANO BRUNO 1438                     PUENTE ALTO         SANTIAGO            000000666000000005052022NN      
2022110311         0000000040186209516DONOSO ROGEL MARIA PAZ                  GIORDANO BRUNO 1438                     PUENTE ALTO         SANTIAGO            000000666000000005062022NN      
2022110311         0000000050186209516DONOSO ROGEL MARIA PAZ                  GIORDANO BRUNO 1438                     PUENTE ALTO         SANTIAGO            000000666000000005072022NN      
2022110311         0000000060186209516DONOSO ROGEL MARIA PAZ                  GIORDANO BRUNO 1438                     PUENTE ALTO         SANTIAGO            000000666000000005082022NN      
2022110311         0000000070186209516DONOSO ROGEL MARIA PAZ                  GIORDANO BRUNO 1438                     PUENTE ALTO         SANTIAGO            000000666000000005092022NN      
2022110311         0000000080186209516DONOSO ROGEL MARIA PAZ                  GIORDANO BRUNO 1438                     PUENTE ALTO         SANTIAGO            000000666000000005102022NN      
2022110311         0000000090186209516DONOSO ROGEL MARIA PAZ                  GIORDANO BRUNO 1438                     PUENTE ALTO         SANTIAGO            000000666000000005112022NN      
2022110311         0000000100186209516DONOSO ROGEL MARIA PAZ                  GIORDANO BRUNO 1438                     PUENTE ALTO         SANTIAGO            000000666000000005122022NN      
2022110319         0000000010113612134MUÑOZ ANDRADE GABRIEL ALEXIS            CAMINO AL VOLCAN 19816                  SAN JOSE DE MAIPO   SANTIAGO            000001110000000005032022NN      
2022110319         0000000020113612134MUÑOZ ANDRADE GABRIEL ALEXIS            CAMINO AL VOLCAN 19816                  SAN JOSE DE MAIPO   SANTIAGO            000001110000000005042022NN      
2022110319         0000000030113612134MUÑOZ ANDRADE GABRIEL ALEXIS            CAMINO AL VOLCAN 19816                  SAN JOSE DE MAIPO   SANTIAGO            000001110000000005052022NN      
2022110319         0000000040113612134MUÑOZ ANDRADE GABRIEL ALEXIS            CAMINO AL VOLCAN 19816                  SAN JOSE DE MAIPO   SANTIAGO            000001110000000005062022NN      
2022110319         0000000050113612134MUÑOZ ANDRADE GABRIEL ALEXIS            CAMINO AL VOLCAN 19816                  SAN JOSE DE MAIPO   SANTIAGO            000001110000000005072022NN      
2022110319         0000000060113612134MUÑOZ ANDRADE GABRIEL ALEXIS            CAMINO AL VOLCAN 19816                  SAN JOSE DE MAIPO   SANTIAGO            000001110000000005082022NN      
2022110319         0000000070113612134MUÑOZ ANDRADE GABRIEL ALEXIS            CAMINO AL VOLCAN 19816                  SAN JOSE DE MAIPO   SANTIAGO            000001110000000005092022NN      
2022110319         0000000080113612134MUÑOZ ANDRADE GABRIEL ALEXIS            CAMINO AL VOLCAN 19816                  SAN JOSE DE MAIPO   SANTIAGO            000001110000000005102022NN      
2022110319         0000000090113612134MUÑOZ ANDRADE GABRIEL ALEXIS            CAMINO AL VOLCAN 19816                  SAN JOSE DE MAIPO   SANTIAGO            000001110000000005112022NN      
2022110319         0000000100113612134MUÑOZ ANDRADE GABRIEL ALEXIS            CAMINO AL VOLCAN 19816                  SAN JOSE DE MAIPO   SANTIAGO            000001110000000005122022NN      
2022110334         0000000010178389289GONZALEZ MAYA PABLO ANTONIO             TRENTO 360                              PUENTE ALTO         SANTIAGO            000000915000000005032022NN      
2022110334         0000000020178389289GONZALEZ MAYA PABLO ANTONIO             TRENTO 360                              PUENTE ALTO         SANTIAGO            000000915000000005042022NN      
2022110334         0000000030178389289GONZALEZ MAYA PABLO ANTONIO             TRENTO 360                              PUENTE ALTO         SANTIAGO            000000915000000005052022NN      
2022110334         0000000040178389289GONZALEZ MAYA PABLO ANTONIO             TRENTO 360                              PUENTE ALTO         SANTIAGO            000000915000000005062022NN      
2022110334         0000000050178389289GONZALEZ MAYA PABLO ANTONIO             TRENTO 360                              PUENTE ALTO         SANTIAGO            000000915000000005072022NN      
2022110334         0000000060178389289GONZALEZ MAYA PABLO ANTONIO             TRENTO 360                              PUENTE ALTO         SANTIAGO            000000915000000005082022NN      
2022110334         0000000070178389289GONZALEZ MAYA PABLO ANTONIO             TRENTO 360                              PUENTE ALTO         SANTIAGO            000000915000000005092022NN      
2022110334         0000000080178389289GONZALEZ MAYA PABLO ANTONIO             TRENTO 360                              PUENTE ALTO         SANTIAGO            000000915000000005102022NN      
2022110334         0000000090178389289GONZALEZ MAYA PABLO ANTONIO             TRENTO 360                              PUENTE ALTO         SANTIAGO            000000915000000005112022NN      
2022110334         0000000100178389289GONZALEZ MAYA PABLO ANTONIO             TRENTO 360                              PUENTE ALTO         SANTIAGO            000000915000000005122022NN      
2022110335         0000000010170053494ROJAS VILLARROEL PAULETTE  IVONNE       RODRIGO DE TRIANA 1200                  PUENTE ALTO         SANTIAGO            000000640500000005032022NN      
2022110335         0000000020170053494ROJAS VILLARROEL PAULETTE  IVONNE       RODRIGO DE TRIANA 1200                  PUENTE ALTO         SANTIAGO            000000640500000005042022NN      
2022110335         0000000030170053494ROJAS VILLARROEL PAULETTE  IVONNE       RODRIGO DE TRIANA 1200                  PUENTE ALTO         SANTIAGO            000000640500000005052022NN      
2022110335         0000000040170053494ROJAS VILLARROEL PAULETTE  IVONNE       RODRIGO DE TRIANA 1200                  PUENTE ALTO         SANTIAGO            000000640500000005062022NN      
2022110335         0000000050170053494ROJAS VILLARROEL PAULETTE  IVONNE       RODRIGO DE TRIANA 1200                  PUENTE ALTO         SANTIAGO            000000640500000005072022NN      
2022110335         0000000060170053494ROJAS VILLARROEL PAULETTE  IVONNE       RODRIGO DE TRIANA 1200                  PUENTE ALTO         SANTIAGO            000000640500000005082022NN      
2022110335         0000000070170053494ROJAS VILLARROEL PAULETTE  IVONNE       RODRIGO DE TRIANA 1200                  PUENTE ALTO         SANTIAGO            000000640500000005092022NN      
2022110335         0000000080170053494ROJAS VILLARROEL PAULETTE  IVONNE       RODRIGO DE TRIANA 1200                  PUENTE ALTO         SANTIAGO            000000640500000005102022NN      
2022110335         0000000090170053494ROJAS VILLARROEL PAULETTE  IVONNE       RODRIGO DE TRIANA 1200                  PUENTE ALTO         SANTIAGO            000000640500000005112022NN      
2022110335         0000000100170053494ROJAS VILLARROEL PAULETTE  IVONNE       RODRIGO DE TRIANA 1200                  PUENTE ALTO         SANTIAGO            000000640500000005122022NN      
2022110347         0000000010139148223CAMPOS GALLEGUILLOS VALERIA DEL PILAR   PJE. LOS LINGUES 2328                   PUENTE ALTO         SANTIAGO            000002025000000005032022NN      
2022110347         0000000020139148223CAMPOS GALLEGUILLOS VALERIA DEL PILAR   PJE. LOS LINGUES 2328                   PUENTE ALTO         SANTIAGO            000002025000000005042022NN      
2022110347         0000000030139148223CAMPOS GALLEGUILLOS VALERIA DEL PILAR   PJE. LOS LINGUES 2328                   PUENTE ALTO         SANTIAGO            000002025000000005052022NN      
2022110347         0000000040139148223CAMPOS GALLEGUILLOS VALERIA DEL PILAR   PJE. LOS LINGUES 2328                   PUENTE ALTO         SANTIAGO            000002025000000005062022NN      
2022110347         0000000050139148223CAMPOS GALLEGUILLOS VALERIA DEL PILAR   PJE. LOS LINGUES 2328                   PUENTE ALTO         SANTIAGO            000002025000000005072022NN      
2022110347         0000000060139148223CAMPOS GALLEGUILLOS VALERIA DEL PILAR   PJE. LOS LINGUES 2328                   PUENTE ALTO         SANTIAGO            000002025000000005082022NN      
2022110347         0000000070139148223CAMPOS GALLEGUILLOS VALERIA DEL PILAR   PJE. LOS LINGUES 2328                   PUENTE ALTO         SANTIAGO            000002025000000005092022NN      
2022110347         0000000080139148223CAMPOS GALLEGUILLOS VALERIA DEL PILAR   PJE. LOS LINGUES 2328                   PUENTE ALTO         SANTIAGO            000002025000000005102022NN      
2022110347         0000000090139148223CAMPOS GALLEGUILLOS VALERIA DEL PILAR   PJE. LOS LINGUES 2328                   PUENTE ALTO         SANTIAGO            000002025000000005112022NN      
2022110347         0000000100139148223CAMPOS GALLEGUILLOS VALERIA DEL PILAR   PJE. LOS LINGUES 2328                   PUENTE ALTO         SANTIAGO            000002025000000005122022NN      
2022110370         0000000010116587971HENRIQUEZ MORA RUBEN ANDRES             LOS CUATRO SILOS PARCELA 13 D           PIRQUE              SANTIAGO            000001110000000005032022NN      
2022110370         0000000020116587971HENRIQUEZ MORA RUBEN ANDRES             LOS CUATRO SILOS PARCELA 13 D           PIRQUE              SANTIAGO            000001110000000005042022NN      
2022110370         0000000030116587971HENRIQUEZ MORA RUBEN ANDRES             LOS CUATRO SILOS PARCELA 13 D           PIRQUE              SANTIAGO            000001110000000005052022NN      
2022110370         0000000040116587971HENRIQUEZ MORA RUBEN ANDRES             LOS CUATRO SILOS PARCELA 13 D           PIRQUE              SANTIAGO            000001110000000005062022NN      
2022110370         0000000050116587971HENRIQUEZ MORA RUBEN ANDRES             LOS CUATRO SILOS PARCELA 13 D           PIRQUE              SANTIAGO            000001110000000005072022NN      
2022110370         0000000060116587971HENRIQUEZ MORA RUBEN ANDRES             LOS CUATRO SILOS PARCELA 13 D           PIRQUE              SANTIAGO            000001110000000005082022NN      
2022110370         0000000070116587971HENRIQUEZ MORA RUBEN ANDRES             LOS CUATRO SILOS PARCELA 13 D           PIRQUE              SANTIAGO            000001110000000005092022NN      
2022110370         0000000080116587971HENRIQUEZ MORA RUBEN ANDRES             LOS CUATRO SILOS PARCELA 13 D           PIRQUE              SANTIAGO            000001110000000005102022NN      
2022110370         0000000090116587971HENRIQUEZ MORA RUBEN ANDRES             LOS CUATRO SILOS PARCELA 13 D           PIRQUE              SANTIAGO            000001110000000005112022NN      
2022110370         0000000100116587971HENRIQUEZ MORA RUBEN ANDRES             LOS CUATRO SILOS PARCELA 13 D           PIRQUE              SANTIAGO            000001110000000005122022NN      
2022110375         0000000010163733706VERA QUILODRAN MICHAEL FERNANDO         CERRO CHAPULUL PONIENTE 02276           PUENTE ALTO         SANTIAGO            000001110000000005032022NN      
2022110375         0000000020163733706VERA QUILODRAN MICHAEL FERNANDO         CERRO CHAPULUL PONIENTE 02276           PUENTE ALTO         SANTIAGO            000001110000000005042022NN      
2022110375         0000000030163733706VERA QUILODRAN MICHAEL FERNANDO         CERRO CHAPULUL PONIENTE 02276           PUENTE ALTO         SANTIAGO            000001110000000005052022NN      
2022110375         0000000040163733706VERA QUILODRAN MICHAEL FERNANDO         CERRO CHAPULUL PONIENTE 02276           PUENTE ALTO         SANTIAGO            000001110000000005062022NN      
2022110375         0000000050163733706VERA QUILODRAN MICHAEL FERNANDO         CERRO CHAPULUL PONIENTE 02276           PUENTE ALTO         SANTIAGO            000001110000000005072022NN      
2022110375         0000000060163733706VERA QUILODRAN MICHAEL FERNANDO         CERRO CHAPULUL PONIENTE 02276           PUENTE ALTO         SANTIAGO            000001110000000005082022NN      
2022110375         0000000070163733706VERA QUILODRAN MICHAEL FERNANDO         CERRO CHAPULUL PONIENTE 02276           PUENTE ALTO         SANTIAGO            000001110000000005092022NN      
2022110375         0000000080163733706VERA QUILODRAN MICHAEL FERNANDO         CERRO CHAPULUL PONIENTE 02276           PUENTE ALTO         SANTIAGO            000001110000000005102022NN      
2022110375         0000000090163733706VERA QUILODRAN MICHAEL FERNANDO         CERRO CHAPULUL PONIENTE 02276           PUENTE ALTO         SANTIAGO            000001110000000005112022NN      
2022110375         0000000100163733706VERA QUILODRAN MICHAEL FERNANDO         CERRO CHAPULUL PONIENTE 02276           PUENTE ALTO         SANTIAGO            000001110000000005122022NN      
2022110376         0000000010157785265DURAN LEYTON CATHERINE DEL CARMEN       CALETA PABELLÓN DE PICA 0780            PUENTE ALTO         SANTIAGO            000001110000000005032022NN      
2022110376         0000000020157785265DURAN LEYTON CATHERINE DEL CARMEN       CALETA PABELLÓN DE PICA 0780            PUENTE ALTO         SANTIAGO            000001110000000005042022NN      
2022110376         0000000030157785265DURAN LEYTON CATHERINE DEL CARMEN       CALETA PABELLÓN DE PICA 0780            PUENTE ALTO         SANTIAGO            000001110000000005052022NN      
2022110376         0000000040157785265DURAN LEYTON CATHERINE DEL CARMEN       CALETA PABELLÓN DE PICA 0780            PUENTE ALTO         SANTIAGO            000001110000000005062022NN      
2022110376         0000000050157785265DURAN LEYTON CATHERINE DEL CARMEN       CALETA PABELLÓN DE PICA 0780            PUENTE ALTO         SANTIAGO            000001110000000005072022NN      
2022110376         0000000060157785265DURAN LEYTON CATHERINE DEL CARMEN       CALETA PABELLÓN DE PICA 0780            PUENTE ALTO         SANTIAGO            000001110000000005082022NN      
2022110376         0000000070157785265DURAN LEYTON CATHERINE DEL CARMEN       CALETA PABELLÓN DE PICA 0780            PUENTE ALTO         SANTIAGO            000001110000000005092022NN      
2022110376         0000000080157785265DURAN LEYTON CATHERINE DEL CARMEN       CALETA PABELLÓN DE PICA 0780            PUENTE ALTO         SANTIAGO            000001110000000005102022NN      
2022110376         0000000090157785265DURAN LEYTON CATHERINE DEL CARMEN       CALETA PABELLÓN DE PICA 0780            PUENTE ALTO         SANTIAGO            000001110000000005112022NN      
2022110376         0000000100157785265DURAN LEYTON CATHERINE DEL CARMEN       CALETA PABELLÓN DE PICA 0780            PUENTE ALTO         SANTIAGO            000001110000000005122022NN      
2022110382         0000000010118181298MARTINEZ CASTILLO ESTRELLA LILIANA DEL CAV. CONCHA Y TORO 796 DPTO.11           PUENTE ALTO         SANTIAGO            000000555000000005032022NN      
2022110382         0000000020118181298MARTINEZ CASTILLO ESTRELLA LILIANA DEL CAV. CONCHA Y TORO 796 DPTO.11           PUENTE ALTO         SANTIAGO            000000555000000005042022NN      
2022110382         0000000030118181298MARTINEZ CASTILLO ESTRELLA LILIANA DEL CAV. CONCHA Y TORO 796 DPTO.11           PUENTE ALTO         SANTIAGO            000000555000000005052022NN      
2022110382         0000000040118181298MARTINEZ CASTILLO ESTRELLA LILIANA DEL CAV. CONCHA Y TORO 796 DPTO.11           PUENTE ALTO         SANTIAGO            000000555000000005062022NN      
2022110382         0000000050118181298MARTINEZ CASTILLO ESTRELLA LILIANA DEL CAV. CONCHA Y TORO 796 DPTO.11           PUENTE ALTO         SANTIAGO            000000555000000005072022NN      
2022110382         0000000060118181298MARTINEZ CASTILLO ESTRELLA LILIANA DEL CAV. CONCHA Y TORO 796 DPTO.11           PUENTE ALTO         SANTIAGO            000000555000000005082022NN      
2022110382         0000000070118181298MARTINEZ CASTILLO ESTRELLA LILIANA DEL CAV. CONCHA Y TORO 796 DPTO.11           PUENTE ALTO         SANTIAGO            000000555000000005092022NN      
2022110382         0000000080118181298MARTINEZ CASTILLO ESTRELLA LILIANA DEL CAV. CONCHA Y TORO 796 DPTO.11           PUENTE ALTO         SANTIAGO            000000555000000005102022NN      
2022110382         0000000090118181298MARTINEZ CASTILLO ESTRELLA LILIANA DEL CAV. CONCHA Y TORO 796 DPTO.11           PUENTE ALTO         SANTIAGO            000000555000000005112022NN      
2022110382         0000000100118181298MARTINEZ CASTILLO ESTRELLA LILIANA DEL CAV. CONCHA Y TORO 796 DPTO.11           PUENTE ALTO         SANTIAGO            000000555000000005122022NN      
2022110388         0000000010154774718MARTINEZ JARA MARIA VANESSA             ESTERO DE LAS POLVAREDAS 0851           PUENTE ALTO         SANTIAGO            000001110000000005032022NN      
2022110388         0000000020154774718MARTINEZ JARA MARIA VANESSA             ESTERO DE LAS POLVAREDAS 0851           PUENTE ALTO         SANTIAGO            000001110000000005042022NN      
2022110388         0000000030154774718MARTINEZ JARA MARIA VANESSA             ESTERO DE LAS POLVAREDAS 0851           PUENTE ALTO         SANTIAGO            000001110000000005052022NN      
2022110388         0000000040154774718MARTINEZ JARA MARIA VANESSA             ESTERO DE LAS POLVAREDAS 0851           PUENTE ALTO         SANTIAGO            000001110000000005062022NN      
2022110388         0000000050154774718MARTINEZ JARA MARIA VANESSA             ESTERO DE LAS POLVAREDAS 0851           PUENTE ALTO         SANTIAGO            000001110000000005072022NN      
2022110388         0000000060154774718MARTINEZ JARA MARIA VANESSA             ESTERO DE LAS POLVAREDAS 0851           PUENTE ALTO         SANTIAGO            000001110000000005082022NN      
2022110388         0000000070154774718MARTINEZ JARA MARIA VANESSA             ESTERO DE LAS POLVAREDAS 0851           PUENTE ALTO         SANTIAGO            000001110000000005092022NN      
2022110388         0000000080154774718MARTINEZ JARA MARIA VANESSA             ESTERO DE LAS POLVAREDAS 0851           PUENTE ALTO         SANTIAGO            000001110000000005102022NN      
2022110388         0000000090154774718MARTINEZ JARA MARIA VANESSA             ESTERO DE LAS POLVAREDAS 0851           PUENTE ALTO         SANTIAGO            000001110000000005112022NN      
2022110388         0000000100154774718MARTINEZ JARA MARIA VANESSA             ESTERO DE LAS POLVAREDAS 0851           PUENTE ALTO         SANTIAGO            000001110000000005122022NN      
2022110392         0000000010117869296SANDOVAL CAMPOS ROSA CRISTINA           CERRO BLANCO 1621                       LA FLORIDA          SANTIAGO            000001110000000005032022NN      
2022110392         0000000020117869296SANDOVAL CAMPOS ROSA CRISTINA           CERRO BLANCO 1621                       LA FLORIDA          SANTIAGO            000001110000000005042022NN      
2022110392         0000000030117869296SANDOVAL CAMPOS ROSA CRISTINA           CERRO BLANCO 1621                       LA FLORIDA          SANTIAGO            000001110000000005052022NN      
2022110392         0000000040117869296SANDOVAL CAMPOS ROSA CRISTINA           CERRO BLANCO 1621                       LA FLORIDA          SANTIAGO            000001110000000005062022NN      
2022110392         0000000050117869296SANDOVAL CAMPOS ROSA CRISTINA           CERRO BLANCO 1621                       LA FLORIDA          SANTIAGO            000001110000000005072022NN      
2022110392         0000000060117869296SANDOVAL CAMPOS ROSA CRISTINA           CERRO BLANCO 1621                       LA FLORIDA          SANTIAGO            000001110000000005082022NN      
2022110392         0000000070117869296SANDOVAL CAMPOS ROSA CRISTINA           CERRO BLANCO 1621                       LA FLORIDA          SANTIAGO            000001110000000005092022NN      
2022110392         0000000080117869296SANDOVAL CAMPOS ROSA CRISTINA           CERRO BLANCO 1621                       LA FLORIDA          SANTIAGO            000001110000000005102022NN      
2022110392         0000000090117869296SANDOVAL CAMPOS ROSA CRISTINA           CERRO BLANCO 1621                       LA FLORIDA          SANTIAGO            000001110000000005112022NN      
2022110392         0000000100117869296SANDOVAL CAMPOS ROSA CRISTINA           CERRO BLANCO 1621                       LA FLORIDA          SANTIAGO            000001110000000005122022NN      
2022110409         000000001013048381KVASQUEZ MARDONES PAULINA DE LOS ANGELES AV. SARGENTO MENADIER 3297              PUENTE ALTO         SANTIAGO            000001110000000005032022NN      
2022110409         000000002013048381KVASQUEZ MARDONES PAULINA DE LOS ANGELES AV. SARGENTO MENADIER 3297              PUENTE ALTO         SANTIAGO            000001110000000005042022NN      
2022110409         000000003013048381KVASQUEZ MARDONES PAULINA DE LOS ANGELES AV. SARGENTO MENADIER 3297              PUENTE ALTO         SANTIAGO            000001110000000005052022NN      
2022110409         000000004013048381KVASQUEZ MARDONES PAULINA DE LOS ANGELES AV. SARGENTO MENADIER 3297              PUENTE ALTO         SANTIAGO            000001110000000005062022NN      
2022110409         000000005013048381KVASQUEZ MARDONES PAULINA DE LOS ANGELES AV. SARGENTO MENADIER 3297              PUENTE ALTO         SANTIAGO            000001110000000005072022NN      
2022110409         000000006013048381KVASQUEZ MARDONES PAULINA DE LOS ANGELES AV. SARGENTO MENADIER 3297              PUENTE ALTO         SANTIAGO            000001110000000005082022NN      
2022110409         000000007013048381KVASQUEZ MARDONES PAULINA DE LOS ANGELES AV. SARGENTO MENADIER 3297              PUENTE ALTO         SANTIAGO            000001110000000005092022NN      
2022110409         000000008013048381KVASQUEZ MARDONES PAULINA DE LOS ANGELES AV. SARGENTO MENADIER 3297              PUENTE ALTO         SANTIAGO            000001110000000005102022NN      
2022110409         000000009013048381KVASQUEZ MARDONES PAULINA DE LOS ANGELES AV. SARGENTO MENADIER 3297              PUENTE ALTO         SANTIAGO            000001110000000005112022NN      
2022110409         000000010013048381KVASQUEZ MARDONES PAULINA DE LOS ANGELES AV. SARGENTO MENADIER 3297              PUENTE ALTO         SANTIAGO            000001110000000005122022NN      
2022110411         0000000010132785198CATIPILLAN ACEVEDO JOSE SEBASTIAN       PASAJE CALOCEDRO CASA 1167              PEÑALOLEN           SANTIAGO            000001110000000005032022NN      
2022110411         0000000020132785198CATIPILLAN ACEVEDO JOSE SEBASTIAN       PASAJE CALOCEDRO CASA 1167              PEÑALOLEN           SANTIAGO            000001110000000005042022NN      
2022110411         0000000030132785198CATIPILLAN ACEVEDO JOSE SEBASTIAN       PASAJE CALOCEDRO CASA 1167              PEÑALOLEN           SANTIAGO            000001110000000005052022NN      
2022110411         0000000040132785198CATIPILLAN ACEVEDO JOSE SEBASTIAN       PASAJE CALOCEDRO CASA 1167              PEÑALOLEN           SANTIAGO            000001110000000005062022NN      
2022110411         0000000050132785198CATIPILLAN ACEVEDO JOSE SEBASTIAN       PASAJE CALOCEDRO CASA 1167              PEÑALOLEN           SANTIAGO            000001110000000005072022NN      
2022110411         0000000060132785198CATIPILLAN ACEVEDO JOSE SEBASTIAN       PASAJE CALOCEDRO CASA 1167              PEÑALOLEN           SANTIAGO            000001110000000005082022NN      
2022110411         0000000070132785198CATIPILLAN ACEVEDO JOSE SEBASTIAN       PASAJE CALOCEDRO CASA 1167              PEÑALOLEN           SANTIAGO            000001110000000005092022NN      
2022110411         0000000080132785198CATIPILLAN ACEVEDO JOSE SEBASTIAN       PASAJE CALOCEDRO CASA 1167              PEÑALOLEN           SANTIAGO            000001110000000005102022NN      
2022110411         0000000090132785198CATIPILLAN ACEVEDO JOSE SEBASTIAN       PASAJE CALOCEDRO CASA 1167              PEÑALOLEN           SANTIAGO            000001110000000005112022NN      
2022110411         0000000100132785198CATIPILLAN ACEVEDO JOSE SEBASTIAN       PASAJE CALOCEDRO CASA 1167              PEÑALOLEN           SANTIAGO            000001110000000005122022NN      
2022110416         0000000010146182992HERNANDEZ NAVARRO SANDRA DEL PILAR      JORGE ROSS OSSA 1067                    PUENTE ALTO         SANTIAGO            000001110000000005032022NN      
2022110416         0000000020146182992HERNANDEZ NAVARRO SANDRA DEL PILAR      JORGE ROSS OSSA 1067                    PUENTE ALTO         SANTIAGO            000001110000000005042022NN      
2022110416         0000000030146182992HERNANDEZ NAVARRO SANDRA DEL PILAR      JORGE ROSS OSSA 1067                    PUENTE ALTO         SANTIAGO            000001110000000005052022NN      
2022110416         0000000040146182992HERNANDEZ NAVARRO SANDRA DEL PILAR      JORGE ROSS OSSA 1067                    PUENTE ALTO         SANTIAGO            000001110000000005062022NN      
2022110416         0000000050146182992HERNANDEZ NAVARRO SANDRA DEL PILAR      JORGE ROSS OSSA 1067                    PUENTE ALTO         SANTIAGO            000001110000000005072022NN      
2022110416         0000000060146182992HERNANDEZ NAVARRO SANDRA DEL PILAR      JORGE ROSS OSSA 1067                    PUENTE ALTO         SANTIAGO            000001110000000005082022NN      
2022110416         0000000070146182992HERNANDEZ NAVARRO SANDRA DEL PILAR      JORGE ROSS OSSA 1067                    PUENTE ALTO         SANTIAGO            000001110000000005092022NN      
2022110416         0000000080146182992HERNANDEZ NAVARRO SANDRA DEL PILAR      JORGE ROSS OSSA 1067                    PUENTE ALTO         SANTIAGO            000001110000000005102022NN      
2022110416         0000000090146182992HERNANDEZ NAVARRO SANDRA DEL PILAR      JORGE ROSS OSSA 1067                    PUENTE ALTO         SANTIAGO            000001110000000005112022NN      
2022110416         0000000100146182992HERNANDEZ NAVARRO SANDRA DEL PILAR      JORGE ROSS OSSA 1067                    PUENTE ALTO         SANTIAGO            000001110000000005122022NN      
2022110417         0000000010132384126SOTO GONZALEZ AUDELIA YESENIA           AZORES ORIENTE 1936                     PUENTE ALTO         SANTIAGO            000000888000000005032022NN      
2022110417         0000000020132384126SOTO GONZALEZ AUDELIA YESENIA           AZORES ORIENTE 1936                     PUENTE ALTO         SANTIAGO            000000888000000005042022NN      
2022110417         0000000030132384126SOTO GONZALEZ AUDELIA YESENIA           AZORES ORIENTE 1936                     PUENTE ALTO         SANTIAGO            000000888000000005052022NN      
2022110417         0000000040132384126SOTO GONZALEZ AUDELIA YESENIA           AZORES ORIENTE 1936                     PUENTE ALTO         SANTIAGO            000000888000000005062022NN      
2022110417         0000000050132384126SOTO GONZALEZ AUDELIA YESENIA           AZORES ORIENTE 1936                     PUENTE ALTO         SANTIAGO            000000888000000005072022NN      
2022110417         0000000060132384126SOTO GONZALEZ AUDELIA YESENIA           AZORES ORIENTE 1936                     PUENTE ALTO         SANTIAGO            000000888000000005082022NN      
2022110417         0000000070132384126SOTO GONZALEZ AUDELIA YESENIA           AZORES ORIENTE 1936                     PUENTE ALTO         SANTIAGO            000000888000000005092022NN      
2022110417         0000000080132384126SOTO GONZALEZ AUDELIA YESENIA           AZORES ORIENTE 1936                     PUENTE ALTO         SANTIAGO            000000888000000005102022NN      
2022110417         0000000090132384126SOTO GONZALEZ AUDELIA YESENIA           AZORES ORIENTE 1936                     PUENTE ALTO         SANTIAGO            000000888000000005112022NN      
2022110417         0000000100132384126SOTO GONZALEZ AUDELIA YESENIA           AZORES ORIENTE 1936                     PUENTE ALTO         SANTIAGO            000000888000000005122022NN      
2022110420         0000000010067035240MARIN VALENCIA IDA SARA                 MANUEL DE FALLA 873                     PUENTE ALTO         SANTIAGO            000001110000000005032022NN      
2022110420         0000000020067035240MARIN VALENCIA IDA SARA                 MANUEL DE FALLA 873                     PUENTE ALTO         SANTIAGO            000001110000000005042022NN      
2022110420         0000000030067035240MARIN VALENCIA IDA SARA                 MANUEL DE FALLA 873                     PUENTE ALTO         SANTIAGO            000001110000000005052022NN      
2022110420         0000000040067035240MARIN VALENCIA IDA SARA                 MANUEL DE FALLA 873                     PUENTE ALTO         SANTIAGO            000001110000000005062022NN      
2022110420         0000000050067035240MARIN VALENCIA IDA SARA                 MANUEL DE FALLA 873                     PUENTE ALTO         SANTIAGO            000001110000000005072022NN      
2022110420         0000000060067035240MARIN VALENCIA IDA SARA                 MANUEL DE FALLA 873                     PUENTE ALTO         SANTIAGO            000001110000000005082022NN      
2022110420         0000000070067035240MARIN VALENCIA IDA SARA                 MANUEL DE FALLA 873                     PUENTE ALTO         SANTIAGO            000001110000000005092022NN      
2022110420         0000000080067035240MARIN VALENCIA IDA SARA                 MANUEL DE FALLA 873                     PUENTE ALTO         SANTIAGO            000001110000000005102022NN      
2022110420         0000000090067035240MARIN VALENCIA IDA SARA                 MANUEL DE FALLA 873                     PUENTE ALTO         SANTIAGO            000001110000000005112022NN      
2022110420         0000000100067035240MARIN VALENCIA IDA SARA                 MANUEL DE FALLA 873                     PUENTE ALTO         SANTIAGO            000001110000000005122022NN      
2022110423         0000000010152662823JARAMILLO CAQUILPAN PATRICIA ALEJANDRA  PSJE CALETA GODOY 1199                  PUENTE ALTO         SANTIAGO            000000777000000005032022NN      
2022110423         0000000020152662823JARAMILLO CAQUILPAN PATRICIA ALEJANDRA  PSJE CALETA GODOY 1199                  PUENTE ALTO         SANTIAGO            000000777000000005042022NN      
2022110423         0000000030152662823JARAMILLO CAQUILPAN PATRICIA ALEJANDRA  PSJE CALETA GODOY 1199                  PUENTE ALTO         SANTIAGO            000000777000000005052022NN      
2022110423         0000000040152662823JARAMILLO CAQUILPAN PATRICIA ALEJANDRA  PSJE CALETA GODOY 1199                  PUENTE ALTO         SANTIAGO            000000777000000005062022NN      
2022110423         0000000050152662823JARAMILLO CAQUILPAN PATRICIA ALEJANDRA  PSJE CALETA GODOY 1199                  PUENTE ALTO         SANTIAGO            000000777000000005072022NN      
2022110423         0000000060152662823JARAMILLO CAQUILPAN PATRICIA ALEJANDRA  PSJE CALETA GODOY 1199                  PUENTE ALTO         SANTIAGO            000000777000000005082022NN      
2022110423         0000000070152662823JARAMILLO CAQUILPAN PATRICIA ALEJANDRA  PSJE CALETA GODOY 1199                  PUENTE ALTO         SANTIAGO            000000777000000005092022NN      
2022110423         0000000080152662823JARAMILLO CAQUILPAN PATRICIA ALEJANDRA  PSJE CALETA GODOY 1199                  PUENTE ALTO         SANTIAGO            000000777000000005102022NN      
2022110423         0000000090152662823JARAMILLO CAQUILPAN PATRICIA ALEJANDRA  PSJE CALETA GODOY 1199                  PUENTE ALTO         SANTIAGO            000000777000000005112022NN      
2022110423         0000000100152662823JARAMILLO CAQUILPAN PATRICIA ALEJANDRA  PSJE CALETA GODOY 1199                  PUENTE ALTO         SANTIAGO            000000777000000005122022NN      
2022110427         0000000010161206423IBARRA LACAMPRETT XIMENA DEL PILAR      LA PRIMAVERA 2192                       PUENTE ALTO         SANTIAGO            000001110000000005032022NN      
2022110427         0000000020161206423IBARRA LACAMPRETT XIMENA DEL PILAR      LA PRIMAVERA 2192                       PUENTE ALTO         SANTIAGO            000001110000000005042022NN      
2022110427         0000000030161206423IBARRA LACAMPRETT XIMENA DEL PILAR      LA PRIMAVERA 2192                       PUENTE ALTO         SANTIAGO            000001110000000005052022NN      
2022110427         0000000040161206423IBARRA LACAMPRETT XIMENA DEL PILAR      LA PRIMAVERA 2192                       PUENTE ALTO         SANTIAGO            000001110000000005062022NN      
2022110427         0000000050161206423IBARRA LACAMPRETT XIMENA DEL PILAR      LA PRIMAVERA 2192                       PUENTE ALTO         SANTIAGO            000001110000000005072022NN      
2022110427         0000000060161206423IBARRA LACAMPRETT XIMENA DEL PILAR      LA PRIMAVERA 2192                       PUENTE ALTO         SANTIAGO            000001110000000005082022NN      
2022110427         0000000070161206423IBARRA LACAMPRETT XIMENA DEL PILAR      LA PRIMAVERA 2192                       PUENTE ALTO         SANTIAGO            000001110000000005092022NN      
2022110427         0000000080161206423IBARRA LACAMPRETT XIMENA DEL PILAR      LA PRIMAVERA 2192                       PUENTE ALTO         SANTIAGO            000001110000000005102022NN      
2022110427         0000000090161206423IBARRA LACAMPRETT XIMENA DEL PILAR      LA PRIMAVERA 2192                       PUENTE ALTO         SANTIAGO            000001110000000005112022NN      
2022110427         0000000100161206423IBARRA LACAMPRETT XIMENA DEL PILAR      LA PRIMAVERA 2192                       PUENTE ALTO         SANTIAGO            000001110000000005122022NN      
2022110428         0000000010158217031TORRES TAMARA ANDREA                    DE LOS METALES 2985                     PUENTE ALTO         SANTIAGO            000001110000000005032022NN      
2022110428         0000000020158217031TORRES TAMARA ANDREA                    DE LOS METALES 2985                     PUENTE ALTO         SANTIAGO            000001110000000005042022NN      
2022110428         0000000030158217031TORRES TAMARA ANDREA                    DE LOS METALES 2985                     PUENTE ALTO         SANTIAGO            000001110000000005052022NN      
2022110428         0000000040158217031TORRES TAMARA ANDREA                    DE LOS METALES 2985                     PUENTE ALTO         SANTIAGO            000001110000000005062022NN      
2022110428         0000000050158217031TORRES TAMARA ANDREA                    DE LOS METALES 2985                     PUENTE ALTO         SANTIAGO            000001110000000005072022NN      
2022110428         0000000060158217031TORRES TAMARA ANDREA                    DE LOS METALES 2985                     PUENTE ALTO         SANTIAGO            000001110000000005082022NN      
2022110428         0000000070158217031TORRES TAMARA ANDREA                    DE LOS METALES 2985                     PUENTE ALTO         SANTIAGO            000001110000000005092022NN      
2022110428         0000000080158217031TORRES TAMARA ANDREA                    DE LOS METALES 2985                     PUENTE ALTO         SANTIAGO            000001110000000005102022NN      
2022110428         0000000090158217031TORRES TAMARA ANDREA                    DE LOS METALES 2985                     PUENTE ALTO         SANTIAGO            000001110000000005112022NN      
2022110428         0000000100158217031TORRES TAMARA ANDREA                    DE LOS METALES 2985                     PUENTE ALTO         SANTIAGO            000001110000000005122022NN      
2022110429         000000001013081221KVERA MORALES PAOLA ANDREA               AV. COSTANERA NORTE 04560 SAN ALBERTO 3 PUENTE ALTO         SANTIAGO            000001110000000005032022NN      
2022110429         000000002013081221KVERA MORALES PAOLA ANDREA               AV. COSTANERA NORTE 04560 SAN ALBERTO 3 PUENTE ALTO         SANTIAGO            000001110000000005042022NN      
2022110429         000000003013081221KVERA MORALES PAOLA ANDREA               AV. COSTANERA NORTE 04560 SAN ALBERTO 3 PUENTE ALTO         SANTIAGO            000001110000000005052022NN      
2022110429         000000004013081221KVERA MORALES PAOLA ANDREA               AV. COSTANERA NORTE 04560 SAN ALBERTO 3 PUENTE ALTO         SANTIAGO            000001110000000005062022NN      
2022110429         000000005013081221KVERA MORALES PAOLA ANDREA               AV. COSTANERA NORTE 04560 SAN ALBERTO 3 PUENTE ALTO         SANTIAGO            000001110000000005072022NN      
2022110429         000000006013081221KVERA MORALES PAOLA ANDREA               AV. COSTANERA NORTE 04560 SAN ALBERTO 3 PUENTE ALTO         SANTIAGO            000001110000000005082022NN      
2022110429         000000007013081221KVERA MORALES PAOLA ANDREA               AV. COSTANERA NORTE 04560 SAN ALBERTO 3 PUENTE ALTO         SANTIAGO            000001110000000005092022NN      
2022110429         000000008013081221KVERA MORALES PAOLA ANDREA               AV. COSTANERA NORTE 04560 SAN ALBERTO 3 PUENTE ALTO         SANTIAGO            000001110000000005102022NN      
2022110429         000000009013081221KVERA MORALES PAOLA ANDREA               AV. COSTANERA NORTE 04560 SAN ALBERTO 3 PUENTE ALTO         SANTIAGO            000001110000000005112022NN      
2022110429         000000010013081221KVERA MORALES PAOLA ANDREA               AV. COSTANERA NORTE 04560 SAN ALBERTO 3 PUENTE ALTO         SANTIAGO            000001110000000005122022NN      
2022110430         0000000010139349245CACERES ESPINOZA MARGARITA VERONICA DEL CALLE LIBRA 02057 VILLA LOS OLIVOS      PUENTE ALTO         SANTIAGO            000001110000000005032022NN      
2022110430         0000000020139349245CACERES ESPINOZA MARGARITA VERONICA DEL CALLE LIBRA 02057 VILLA LOS OLIVOS      PUENTE ALTO         SANTIAGO            000001110000000005042022NN      
2022110430         0000000030139349245CACERES ESPINOZA MARGARITA VERONICA DEL CALLE LIBRA 02057 VILLA LOS OLIVOS      PUENTE ALTO         SANTIAGO            000001110000000005052022NN      
2022110430         0000000040139349245CACERES ESPINOZA MARGARITA VERONICA DEL CALLE LIBRA 02057 VILLA LOS OLIVOS      PUENTE ALTO         SANTIAGO            000001110000000005062022NN      
2022110430         0000000050139349245CACERES ESPINOZA MARGARITA VERONICA DEL CALLE LIBRA 02057 VILLA LOS OLIVOS      PUENTE ALTO         SANTIAGO            000001110000000005072022NN      
2022110430         0000000060139349245CACERES ESPINOZA MARGARITA VERONICA DEL CALLE LIBRA 02057 VILLA LOS OLIVOS      PUENTE ALTO         SANTIAGO            000001110000000005082022NN      
2022110430         0000000070139349245CACERES ESPINOZA MARGARITA VERONICA DEL CALLE LIBRA 02057 VILLA LOS OLIVOS      PUENTE ALTO         SANTIAGO            000001110000000005092022NN      
2022110430         0000000080139349245CACERES ESPINOZA MARGARITA VERONICA DEL CALLE LIBRA 02057 VILLA LOS OLIVOS      PUENTE ALTO         SANTIAGO            000001110000000005102022NN      
2022110430         0000000090139349245CACERES ESPINOZA MARGARITA VERONICA DEL CALLE LIBRA 02057 VILLA LOS OLIVOS      PUENTE ALTO         SANTIAGO            000001110000000005112022NN      
2022110430         0000000100139349245CACERES ESPINOZA MARGARITA VERONICA DEL CALLE LIBRA 02057 VILLA LOS OLIVOS      PUENTE ALTO         SANTIAGO            000001110000000005122022NN      
2022110431         0000000010141997130PALMA ESCOBAR MERY SANDRA               AV. EJERCITO LIBERTADOR 2120            PUENTE ALTO         SANTIAGO            000000666000000005032022NN      
2022110431         0000000020141997130PALMA ESCOBAR MERY SANDRA               AV. EJERCITO LIBERTADOR 2120            PUENTE ALTO         SANTIAGO            000000666000000005042022NN      
2022110431         0000000030141997130PALMA ESCOBAR MERY SANDRA               AV. EJERCITO LIBERTADOR 2120            PUENTE ALTO         SANTIAGO            000000666000000005052022NN      
2022110431         0000000040141997130PALMA ESCOBAR MERY SANDRA               AV. EJERCITO LIBERTADOR 2120            PUENTE ALTO         SANTIAGO            000000666000000005062022NN      
2022110431         0000000050141997130PALMA ESCOBAR MERY SANDRA               AV. EJERCITO LIBERTADOR 2120            PUENTE ALTO         SANTIAGO            000000666000000005072022NN      
2022110431         0000000060141997130PALMA ESCOBAR MERY SANDRA               AV. EJERCITO LIBERTADOR 2120            PUENTE ALTO         SANTIAGO            000000666000000005082022NN      
2022110431         0000000070141997130PALMA ESCOBAR MERY SANDRA               AV. EJERCITO LIBERTADOR 2120            PUENTE ALTO         SANTIAGO            000000666000000005092022NN      
2022110431         0000000080141997130PALMA ESCOBAR MERY SANDRA               AV. EJERCITO LIBERTADOR 2120            PUENTE ALTO         SANTIAGO            000000666000000005102022NN      
2022110431         0000000090141997130PALMA ESCOBAR MERY SANDRA               AV. EJERCITO LIBERTADOR 2120            PUENTE ALTO         SANTIAGO            000000666000000005112022NN      
2022110431         0000000100141997130PALMA ESCOBAR MERY SANDRA               AV. EJERCITO LIBERTADOR 2120            PUENTE ALTO         SANTIAGO            000000666000000005122022NN      
2022110432         0000000010154333142RUBILAR OLIVARES ANGELINA ANDREA        ERNESTO ALVEAR 77                       PUENTE ALTO         SANTIAGO            000002220000000005032022NN      
2022110432         0000000020154333142RUBILAR OLIVARES ANGELINA ANDREA        ERNESTO ALVEAR 77                       PUENTE ALTO         SANTIAGO            000002220000000005042022NN      
2022110432         0000000030154333142RUBILAR OLIVARES ANGELINA ANDREA        ERNESTO ALVEAR 77                       PUENTE ALTO         SANTIAGO            000002220000000005052022NN      
2022110432         0000000040154333142RUBILAR OLIVARES ANGELINA ANDREA        ERNESTO ALVEAR 77                       PUENTE ALTO         SANTIAGO            000002220000000005062022NN      
2022110432         0000000050154333142RUBILAR OLIVARES ANGELINA ANDREA        ERNESTO ALVEAR 77                       PUENTE ALTO         SANTIAGO            000002220000000005072022NN      
2022110432         0000000060154333142RUBILAR OLIVARES ANGELINA ANDREA        ERNESTO ALVEAR 77                       PUENTE ALTO         SANTIAGO            000002220000000005082022NN      
2022110432         0000000070154333142RUBILAR OLIVARES ANGELINA ANDREA        ERNESTO ALVEAR 77                       PUENTE ALTO         SANTIAGO            000002220000000005092022NN      
2022110432         0000000080154333142RUBILAR OLIVARES ANGELINA ANDREA        ERNESTO ALVEAR 77                       PUENTE ALTO         SANTIAGO            000002220000000005102022NN      
2022110432         0000000090154333142RUBILAR OLIVARES ANGELINA ANDREA        ERNESTO ALVEAR 77                       PUENTE ALTO         SANTIAGO            000002220000000005112022NN      
2022110432         0000000100154333142RUBILAR OLIVARES ANGELINA ANDREA        ERNESTO ALVEAR 77                       PUENTE ALTO         SANTIAGO            000002220000000005122022NN      
2022110433         0000000010126457235MAUREIRA VILCHES JORGE ALBERTO          PJE. MILAN 464 CIUDAD DEL SOL           PUENTE ALTO         SANTIAGO            000001110000000005032022NN      
2022110433         0000000020126457235MAUREIRA VILCHES JORGE ALBERTO          PJE. MILAN 464 CIUDAD DEL SOL           PUENTE ALTO         SANTIAGO            000001110000000005042022NN      
2022110433         0000000030126457235MAUREIRA VILCHES JORGE ALBERTO          PJE. MILAN 464 CIUDAD DEL SOL           PUENTE ALTO         SANTIAGO            000001110000000005052022NN      
2022110433         0000000040126457235MAUREIRA VILCHES JORGE ALBERTO          PJE. MILAN 464 CIUDAD DEL SOL           PUENTE ALTO         SANTIAGO            000001110000000005062022NN      
2022110433         0000000050126457235MAUREIRA VILCHES JORGE ALBERTO          PJE. MILAN 464 CIUDAD DEL SOL           PUENTE ALTO         SANTIAGO            000001110000000005072022NN      
2022110433         0000000060126457235MAUREIRA VILCHES JORGE ALBERTO          PJE. MILAN 464 CIUDAD DEL SOL           PUENTE ALTO         SANTIAGO            000001110000000005082022NN      
2022110433         0000000070126457235MAUREIRA VILCHES JORGE ALBERTO          PJE. MILAN 464 CIUDAD DEL SOL           PUENTE ALTO         SANTIAGO            000001110000000005092022NN      
2022110433         0000000080126457235MAUREIRA VILCHES JORGE ALBERTO          PJE. MILAN 464 CIUDAD DEL SOL           PUENTE ALTO         SANTIAGO            000001110000000005102022NN      
2022110433         0000000090126457235MAUREIRA VILCHES JORGE ALBERTO          PJE. MILAN 464 CIUDAD DEL SOL           PUENTE ALTO         SANTIAGO            000001110000000005112022NN      
2022110433         0000000100126457235MAUREIRA VILCHES JORGE ALBERTO          PJE. MILAN 464 CIUDAD DEL SOL           PUENTE ALTO         SANTIAGO            000001110000000005122022NN      
2022110437         0000000010112679561PEREZ TORO CLAUDIA JIMENA               AV EL PERAL 7137                        PUENTE ALTO         SANTIAGO            000001110000000005032022NN      
2022110437         0000000020112679561PEREZ TORO CLAUDIA JIMENA               AV EL PERAL 7137                        PUENTE ALTO         SANTIAGO            000001110000000005042022NN      
2022110437         0000000030112679561PEREZ TORO CLAUDIA JIMENA               AV EL PERAL 7137                        PUENTE ALTO         SANTIAGO            000001110000000005052022NN      
2022110437         0000000040112679561PEREZ TORO CLAUDIA JIMENA               AV EL PERAL 7137                        PUENTE ALTO         SANTIAGO            000001110000000005062022NN      
2022110437         0000000050112679561PEREZ TORO CLAUDIA JIMENA               AV EL PERAL 7137                        PUENTE ALTO         SANTIAGO            000001110000000005072022NN      
2022110437         0000000060112679561PEREZ TORO CLAUDIA JIMENA               AV EL PERAL 7137                        PUENTE ALTO         SANTIAGO            000001110000000005082022NN      
2022110437         0000000070112679561PEREZ TORO CLAUDIA JIMENA               AV EL PERAL 7137                        PUENTE ALTO         SANTIAGO            000001110000000005092022NN      
2022110437         0000000080112679561PEREZ TORO CLAUDIA JIMENA               AV EL PERAL 7137                        PUENTE ALTO         SANTIAGO            000001110000000005102022NN      
2022110437         0000000090112679561PEREZ TORO CLAUDIA JIMENA               AV EL PERAL 7137                        PUENTE ALTO         SANTIAGO            000001110000000005112022NN      
2022110437         0000000100112679561PEREZ TORO CLAUDIA JIMENA               AV EL PERAL 7137                        PUENTE ALTO         SANTIAGO            000001110000000005122022NN      
2022110443         0000000010160827912TAVIE RUBIO LADY ROCIO                  PASAJE FIGUERES 416 BRISAS DEL MAIPO    PUENTE ALTO         SANTIAGO            000001110000000005032022NN      
2022110443         0000000020160827912TAVIE RUBIO LADY ROCIO                  PASAJE FIGUERES 416 BRISAS DEL MAIPO    PUENTE ALTO         SANTIAGO            000001110000000005042022NN      
2022110443         0000000030160827912TAVIE RUBIO LADY ROCIO                  PASAJE FIGUERES 416 BRISAS DEL MAIPO    PUENTE ALTO         SANTIAGO            000001110000000005052022NN      
2022110443         0000000040160827912TAVIE RUBIO LADY ROCIO                  PASAJE FIGUERES 416 BRISAS DEL MAIPO    PUENTE ALTO         SANTIAGO            000001110000000005062022NN      
2022110443         0000000050160827912TAVIE RUBIO LADY ROCIO                  PASAJE FIGUERES 416 BRISAS DEL MAIPO    PUENTE ALTO         SANTIAGO            000001110000000005072022NN      
2022110443         0000000060160827912TAVIE RUBIO LADY ROCIO                  PASAJE FIGUERES 416 BRISAS DEL MAIPO    PUENTE ALTO         SANTIAGO            000001110000000005082022NN      
2022110443         0000000070160827912TAVIE RUBIO LADY ROCIO                  PASAJE FIGUERES 416 BRISAS DEL MAIPO    PUENTE ALTO         SANTIAGO            000001110000000005092022NN      
2022110443         0000000080160827912TAVIE RUBIO LADY ROCIO                  PASAJE FIGUERES 416 BRISAS DEL MAIPO    PUENTE ALTO         SANTIAGO            000001110000000005102022NN      
2022110443         0000000090160827912TAVIE RUBIO LADY ROCIO                  PASAJE FIGUERES 416 BRISAS DEL MAIPO    PUENTE ALTO         SANTIAGO            000001110000000005112022NN      
2022110443         0000000100160827912TAVIE RUBIO LADY ROCIO                  PASAJE FIGUERES 416 BRISAS DEL MAIPO    PUENTE ALTO         SANTIAGO            000001110000000005122022NN      
2022110444         0000000010125038697GALLARDO MORENO INGRID ANGELINA         AV. CONCHA Y TORO 1567                  PUENTE ALTO         SANTIAGO            000001110000000005032022NN      
2022110444         0000000020125038697GALLARDO MORENO INGRID ANGELINA         AV. CONCHA Y TORO 1567                  PUENTE ALTO         SANTIAGO            000001110000000005042022NN      
2022110444         0000000030125038697GALLARDO MORENO INGRID ANGELINA         AV. CONCHA Y TORO 1567                  PUENTE ALTO         SANTIAGO            000001110000000005052022NN      
2022110444         0000000040125038697GALLARDO MORENO INGRID ANGELINA         AV. CONCHA Y TORO 1567                  PUENTE ALTO         SANTIAGO            000001110000000005062022NN      
2022110444         0000000050125038697GALLARDO MORENO INGRID ANGELINA         AV. CONCHA Y TORO 1567                  PUENTE ALTO         SANTIAGO            000001110000000005072022NN      
2022110444         0000000060125038697GALLARDO MORENO INGRID ANGELINA         AV. CONCHA Y TORO 1567                  PUENTE ALTO         SANTIAGO            000001110000000005082022NN      
2022110444         0000000070125038697GALLARDO MORENO INGRID ANGELINA         AV. CONCHA Y TORO 1567                  PUENTE ALTO         SANTIAGO            000001110000000005092022NN      
2022110444         0000000080125038697GALLARDO MORENO INGRID ANGELINA         AV. CONCHA Y TORO 1567                  PUENTE ALTO         SANTIAGO            000001110000000005102022NN      
2022110444         0000000090125038697GALLARDO MORENO INGRID ANGELINA         AV. CONCHA Y TORO 1567                  PUENTE ALTO         SANTIAGO            000001110000000005112022NN      
2022110444         0000000100125038697GALLARDO MORENO INGRID ANGELINA         AV. CONCHA Y TORO 1567                  PUENTE ALTO         SANTIAGO            000001110000000005122022NN      
2022110446         0000000010162670131MOYA VIDAURRE DANIELA ANDREA            DE LOS MINERALES 3090                   PUENTE ALTO         SANTIAGO            000001110000000005032022NN      
2022110446         0000000020162670131MOYA VIDAURRE DANIELA ANDREA            DE LOS MINERALES 3090                   PUENTE ALTO         SANTIAGO            000001110000000005042022NN      
2022110446         0000000030162670131MOYA VIDAURRE DANIELA ANDREA            DE LOS MINERALES 3090                   PUENTE ALTO         SANTIAGO            000001110000000005052022NN      
2022110446         0000000040162670131MOYA VIDAURRE DANIELA ANDREA            DE LOS MINERALES 3090                   PUENTE ALTO         SANTIAGO            000001110000000005062022NN      
2022110446         0000000050162670131MOYA VIDAURRE DANIELA ANDREA            DE LOS MINERALES 3090                   PUENTE ALTO         SANTIAGO            000001110000000005072022NN      
2022110446         0000000060162670131MOYA VIDAURRE DANIELA ANDREA            DE LOS MINERALES 3090                   PUENTE ALTO         SANTIAGO            000001110000000005082022NN      
2022110446         0000000070162670131MOYA VIDAURRE DANIELA ANDREA            DE LOS MINERALES 3090                   PUENTE ALTO         SANTIAGO            000001110000000005092022NN      
2022110446         0000000080162670131MOYA VIDAURRE DANIELA ANDREA            DE LOS MINERALES 3090                   PUENTE ALTO         SANTIAGO            000001110000000005102022NN      
2022110446         0000000090162670131MOYA VIDAURRE DANIELA ANDREA            DE LOS MINERALES 3090                   PUENTE ALTO         SANTIAGO            000001110000000005112022NN      
2022110446         0000000100162670131MOYA VIDAURRE DANIELA ANDREA            DE LOS MINERALES 3090                   PUENTE ALTO         SANTIAGO            000001110000000005122022NN      
2022110447         0000000010107130616ROJAS AVILA GEMIMA REBECA               LOMAS DEL VIENTO 0216                   PUENTE ALTO         SANTIAGO            000000555000000005032022NN      
2022110447         0000000020107130616ROJAS AVILA GEMIMA REBECA               LOMAS DEL VIENTO 0216                   PUENTE ALTO         SANTIAGO            000000555000000005042022NN      
2022110447         0000000030107130616ROJAS AVILA GEMIMA REBECA               LOMAS DEL VIENTO 0216                   PUENTE ALTO         SANTIAGO            000000555000000005052022NN      
2022110447         0000000040107130616ROJAS AVILA GEMIMA REBECA               LOMAS DEL VIENTO 0216                   PUENTE ALTO         SANTIAGO            000000555000000005062022NN      
2022110447         0000000050107130616ROJAS AVILA GEMIMA REBECA               LOMAS DEL VIENTO 0216                   PUENTE ALTO         SANTIAGO            000000555000000005072022NN      
2022110447         0000000060107130616ROJAS AVILA GEMIMA REBECA               LOMAS DEL VIENTO 0216                   PUENTE ALTO         SANTIAGO            000000555000000005082022NN      
2022110447         0000000070107130616ROJAS AVILA GEMIMA REBECA               LOMAS DEL VIENTO 0216                   PUENTE ALTO         SANTIAGO            000000555000000005092022NN      
2022110447         0000000080107130616ROJAS AVILA GEMIMA REBECA               LOMAS DEL VIENTO 0216                   PUENTE ALTO         SANTIAGO            000000555000000005102022NN      
2022110447         0000000090107130616ROJAS AVILA GEMIMA REBECA               LOMAS DEL VIENTO 0216                   PUENTE ALTO         SANTIAGO            000000555000000005112022NN      
2022110447         0000000100107130616ROJAS AVILA GEMIMA REBECA               LOMAS DEL VIENTO 0216                   PUENTE ALTO         SANTIAGO            000000555000000005122022NN      
2022110453         0000000010126761635SALAS RAMOS MARCELA ANGELICA            DE LA PLATA 2238                        PUENTE ALTO         SANTIAGO            000001110000000005032022NN      
2022110453         0000000020126761635SALAS RAMOS MARCELA ANGELICA            DE LA PLATA 2238                        PUENTE ALTO         SANTIAGO            000001110000000005042022NN      
2022110453         0000000030126761635SALAS RAMOS MARCELA ANGELICA            DE LA PLATA 2238                        PUENTE ALTO         SANTIAGO            000001110000000005052022NN      
2022110453         0000000040126761635SALAS RAMOS MARCELA ANGELICA            DE LA PLATA 2238                        PUENTE ALTO         SANTIAGO            000001110000000005062022NN      
2022110453         0000000050126761635SALAS RAMOS MARCELA ANGELICA            DE LA PLATA 2238                        PUENTE ALTO         SANTIAGO            000001110000000005072022NN      
2022110453         0000000060126761635SALAS RAMOS MARCELA ANGELICA            DE LA PLATA 2238                        PUENTE ALTO         SANTIAGO            000001110000000005082022NN      
2022110453         0000000070126761635SALAS RAMOS MARCELA ANGELICA            DE LA PLATA 2238                        PUENTE ALTO         SANTIAGO            000001110000000005092022NN      
2022110453         0000000080126761635SALAS RAMOS MARCELA ANGELICA            DE LA PLATA 2238                        PUENTE ALTO         SANTIAGO            000001110000000005102022NN      
2022110453         0000000090126761635SALAS RAMOS MARCELA ANGELICA            DE LA PLATA 2238                        PUENTE ALTO         SANTIAGO            000001110000000005112022NN      
2022110453         0000000100126761635SALAS RAMOS MARCELA ANGELICA            DE LA PLATA 2238                        PUENTE ALTO         SANTIAGO            000001110000000005122022NN      
2022110454         0000000010154418911GUZMAN DURAN MARIA CECILIA              AVENIDA EJERCITO LIBERTADOR 2348        PUENTE ALTO         SANTIAGO            000000915000000005032022NN      
2022110454         0000000020154418911GUZMAN DURAN MARIA CECILIA              AVENIDA EJERCITO LIBERTADOR 2348        PUENTE ALTO         SANTIAGO            000000915000000005042022NN      
2022110454         0000000030154418911GUZMAN DURAN MARIA CECILIA              AVENIDA EJERCITO LIBERTADOR 2348        PUENTE ALTO         SANTIAGO            000000915000000005052022NN      
2022110454         0000000040154418911GUZMAN DURAN MARIA CECILIA              AVENIDA EJERCITO LIBERTADOR 2348        PUENTE ALTO         SANTIAGO            000000915000000005062022NN      
2022110454         0000000050154418911GUZMAN DURAN MARIA CECILIA              AVENIDA EJERCITO LIBERTADOR 2348        PUENTE ALTO         SANTIAGO            000000915000000005072022NN      
2022110454         0000000060154418911GUZMAN DURAN MARIA CECILIA              AVENIDA EJERCITO LIBERTADOR 2348        PUENTE ALTO         SANTIAGO            000000915000000005082022NN      
2022110454         0000000070154418911GUZMAN DURAN MARIA CECILIA              AVENIDA EJERCITO LIBERTADOR 2348        PUENTE ALTO         SANTIAGO            000000915000000005092022NN      
2022110454         0000000080154418911GUZMAN DURAN MARIA CECILIA              AVENIDA EJERCITO LIBERTADOR 2348        PUENTE ALTO         SANTIAGO            000000915000000005102022NN      
2022110454         0000000090154418911GUZMAN DURAN MARIA CECILIA              AVENIDA EJERCITO LIBERTADOR 2348        PUENTE ALTO         SANTIAGO            000000915000000005112022NN      
2022110454         0000000100154418911GUZMAN DURAN MARIA CECILIA              AVENIDA EJERCITO LIBERTADOR 2348        PUENTE ALTO         SANTIAGO            000000915000000005122022NN      
2022110456         0000000010116493187PRADO VILLARROEL VIVIANA DEL ROSARIO    PASAJE LAZIO ORIENTE 1509               PUENTE ALTO         SANTIAGO            000001110000000005032022NN      
2022110456         0000000020116493187PRADO VILLARROEL VIVIANA DEL ROSARIO    PASAJE LAZIO ORIENTE 1509               PUENTE ALTO         SANTIAGO            000001110000000005042022NN      
2022110456         0000000030116493187PRADO VILLARROEL VIVIANA DEL ROSARIO    PASAJE LAZIO ORIENTE 1509               PUENTE ALTO         SANTIAGO            000001110000000005052022NN      
2022110456         0000000040116493187PRADO VILLARROEL VIVIANA DEL ROSARIO    PASAJE LAZIO ORIENTE 1509               PUENTE ALTO         SANTIAGO            000001110000000005062022NN      
2022110456         0000000050116493187PRADO VILLARROEL VIVIANA DEL ROSARIO    PASAJE LAZIO ORIENTE 1509               PUENTE ALTO         SANTIAGO            000001110000000005072022NN      
2022110456         0000000060116493187PRADO VILLARROEL VIVIANA DEL ROSARIO    PASAJE LAZIO ORIENTE 1509               PUENTE ALTO         SANTIAGO            000001110000000005082022NN      
2022110456         0000000070116493187PRADO VILLARROEL VIVIANA DEL ROSARIO    PASAJE LAZIO ORIENTE 1509               PUENTE ALTO         SANTIAGO            000001110000000005092022NN      
2022110456         0000000080116493187PRADO VILLARROEL VIVIANA DEL ROSARIO    PASAJE LAZIO ORIENTE 1509               PUENTE ALTO         SANTIAGO            000001110000000005102022NN      
2022110456         0000000090116493187PRADO VILLARROEL VIVIANA DEL ROSARIO    PASAJE LAZIO ORIENTE 1509               PUENTE ALTO         SANTIAGO            000001110000000005112022NN      
2022110456         0000000100116493187PRADO VILLARROEL VIVIANA DEL ROSARIO    PASAJE LAZIO ORIENTE 1509               PUENTE ALTO         SANTIAGO            000001110000000005122022NN      
2022110457         0000000010132757305LLANQUIMAN CHAVEZ CLAUDIA ANDREA        AV. CHILOE 0525                         PUENTE ALTO         SANTIAGO            000001110000000005032022NN      
2022110457         0000000020132757305LLANQUIMAN CHAVEZ CLAUDIA ANDREA        AV. CHILOE 0525                         PUENTE ALTO         SANTIAGO            000001110000000005042022NN      
2022110457         0000000030132757305LLANQUIMAN CHAVEZ CLAUDIA ANDREA        AV. CHILOE 0525                         PUENTE ALTO         SANTIAGO            000001110000000005052022NN      
2022110457         0000000040132757305LLANQUIMAN CHAVEZ CLAUDIA ANDREA        AV. CHILOE 0525                         PUENTE ALTO         SANTIAGO            000001110000000005062022NN      
2022110457         0000000050132757305LLANQUIMAN CHAVEZ CLAUDIA ANDREA        AV. CHILOE 0525                         PUENTE ALTO         SANTIAGO            000001110000000005072022NN      
2022110457         0000000060132757305LLANQUIMAN CHAVEZ CLAUDIA ANDREA        AV. CHILOE 0525                         PUENTE ALTO         SANTIAGO            000001110000000005082022NN      
2022110457         0000000070132757305LLANQUIMAN CHAVEZ CLAUDIA ANDREA        AV. CHILOE 0525                         PUENTE ALTO         SANTIAGO            000001110000000005092022NN      
2022110457         0000000080132757305LLANQUIMAN CHAVEZ CLAUDIA ANDREA        AV. CHILOE 0525                         PUENTE ALTO         SANTIAGO            000001110000000005102022NN      
2022110457         0000000090132757305LLANQUIMAN CHAVEZ CLAUDIA ANDREA        AV. CHILOE 0525                         PUENTE ALTO         SANTIAGO            000001110000000005112022NN      
2022110457         0000000100132757305LLANQUIMAN CHAVEZ CLAUDIA ANDREA        AV. CHILOE 0525                         PUENTE ALTO         SANTIAGO            000001110000000005122022NN      
2022110458         0000000010170070194HERNANDEZ FUENTES LUZ MARIA             PASAJE ASIS 1505, CIUDAD DEL SOL        PUENTE ALTO         SANTIAGO            000001110000000005032022NN      
2022110458         0000000020170070194HERNANDEZ FUENTES LUZ MARIA             PASAJE ASIS 1505, CIUDAD DEL SOL        PUENTE ALTO         SANTIAGO            000001110000000005042022NN      
2022110458         0000000030170070194HERNANDEZ FUENTES LUZ MARIA             PASAJE ASIS 1505, CIUDAD DEL SOL        PUENTE ALTO         SANTIAGO            000001110000000005052022NN      
2022110458         0000000040170070194HERNANDEZ FUENTES LUZ MARIA             PASAJE ASIS 1505, CIUDAD DEL SOL        PUENTE ALTO         SANTIAGO            000001110000000005062022NN      
2022110458         0000000050170070194HERNANDEZ FUENTES LUZ MARIA             PASAJE ASIS 1505, CIUDAD DEL SOL        PUENTE ALTO         SANTIAGO            000001110000000005072022NN      
2022110458         0000000060170070194HERNANDEZ FUENTES LUZ MARIA             PASAJE ASIS 1505, CIUDAD DEL SOL        PUENTE ALTO         SANTIAGO            000001110000000005082022NN      
2022110458         0000000070170070194HERNANDEZ FUENTES LUZ MARIA             PASAJE ASIS 1505, CIUDAD DEL SOL        PUENTE ALTO         SANTIAGO            000001110000000005092022NN      
2022110458         0000000080170070194HERNANDEZ FUENTES LUZ MARIA             PASAJE ASIS 1505, CIUDAD DEL SOL        PUENTE ALTO         SANTIAGO            000001110000000005102022NN      
2022110458         0000000090170070194HERNANDEZ FUENTES LUZ MARIA             PASAJE ASIS 1505, CIUDAD DEL SOL        PUENTE ALTO         SANTIAGO            000001110000000005112022NN      
2022110458         0000000100170070194HERNANDEZ FUENTES LUZ MARIA             PASAJE ASIS 1505, CIUDAD DEL SOL        PUENTE ALTO         SANTIAGO            000001110000000005122022NN      
2022110459         0000000010120559346VIDAL VASQUEZ RENAN SEBASTIAN           AVDA. LUIS MATTE 245                    PUENTE ALTO         SANTIAGO            000001110000000005032022NN      
2022110459         0000000020120559346VIDAL VASQUEZ RENAN SEBASTIAN           AVDA. LUIS MATTE 245                    PUENTE ALTO         SANTIAGO            000001110000000005042022NN      
2022110459         0000000030120559346VIDAL VASQUEZ RENAN SEBASTIAN           AVDA. LUIS MATTE 245                    PUENTE ALTO         SANTIAGO            000001110000000005052022NN      
2022110459         0000000040120559346VIDAL VASQUEZ RENAN SEBASTIAN           AVDA. LUIS MATTE 245                    PUENTE ALTO         SANTIAGO            000001110000000005062022NN      
2022110459         0000000050120559346VIDAL VASQUEZ RENAN SEBASTIAN           AVDA. LUIS MATTE 245                    PUENTE ALTO         SANTIAGO            000001110000000005072022NN      
2022110459         0000000060120559346VIDAL VASQUEZ RENAN SEBASTIAN           AVDA. LUIS MATTE 245                    PUENTE ALTO         SANTIAGO            000001110000000005082022NN      
2022110459         0000000070120559346VIDAL VASQUEZ RENAN SEBASTIAN           AVDA. LUIS MATTE 245                    PUENTE ALTO         SANTIAGO            000001110000000005092022NN      
2022110459         0000000080120559346VIDAL VASQUEZ RENAN SEBASTIAN           AVDA. LUIS MATTE 245                    PUENTE ALTO         SANTIAGO            000001110000000005102022NN      
2022110459         0000000090120559346VIDAL VASQUEZ RENAN SEBASTIAN           AVDA. LUIS MATTE 245                    PUENTE ALTO         SANTIAGO            000001110000000005112022NN      
2022110459         0000000100120559346VIDAL VASQUEZ RENAN SEBASTIAN           AVDA. LUIS MATTE 245                    PUENTE ALTO         SANTIAGO            000001110000000005122022NN      
2022110464         0000000010134982659ITURRA MEJIAS KATHERINE DEL CARMEN      JUAN DE DIOS MALEBRAN 3676 CASA 88      PUENTE ALTO         SANTIAGO            000002220000000005032022NN      
2022110464         0000000020134982659ITURRA MEJIAS KATHERINE DEL CARMEN      JUAN DE DIOS MALEBRAN 3676 CASA 88      PUENTE ALTO         SANTIAGO            000002220000000005042022NN      
2022110464         0000000030134982659ITURRA MEJIAS KATHERINE DEL CARMEN      JUAN DE DIOS MALEBRAN 3676 CASA 88      PUENTE ALTO         SANTIAGO            000002220000000005052022NN      
2022110464         0000000040134982659ITURRA MEJIAS KATHERINE DEL CARMEN      JUAN DE DIOS MALEBRAN 3676 CASA 88      PUENTE ALTO         SANTIAGO            000002220000000005062022NN      
2022110464         0000000050134982659ITURRA MEJIAS KATHERINE DEL CARMEN      JUAN DE DIOS MALEBRAN 3676 CASA 88      PUENTE ALTO         SANTIAGO            000002220000000005072022NN      
2022110464         0000000060134982659ITURRA MEJIAS KATHERINE DEL CARMEN      JUAN DE DIOS MALEBRAN 3676 CASA 88      PUENTE ALTO         SANTIAGO            000002220000000005082022NN      
2022110464         0000000070134982659ITURRA MEJIAS KATHERINE DEL CARMEN      JUAN DE DIOS MALEBRAN 3676 CASA 88      PUENTE ALTO         SANTIAGO            000002220000000005092022NN      
2022110464         0000000080134982659ITURRA MEJIAS KATHERINE DEL CARMEN      JUAN DE DIOS MALEBRAN 3676 CASA 88      PUENTE ALTO         SANTIAGO            000002220000000005102022NN      
2022110464         0000000090134982659ITURRA MEJIAS KATHERINE DEL CARMEN      JUAN DE DIOS MALEBRAN 3676 CASA 88      PUENTE ALTO         SANTIAGO            000002220000000005112022NN      
2022110464         0000000100134982659ITURRA MEJIAS KATHERINE DEL CARMEN      JUAN DE DIOS MALEBRAN 3676 CASA 88      PUENTE ALTO         SANTIAGO            000002220000000005122022NN      
2022110468         0000000010130939619RIVERA MONTECINOS KATHERINE ANDREA      INDEPENDENCIA 1376                      PUENTE ALTO         SANTIAGO            000002025000000005032022NN      
2022110468         0000000020130939619RIVERA MONTECINOS KATHERINE ANDREA      INDEPENDENCIA 1376                      PUENTE ALTO         SANTIAGO            000002025000000005042022NN      
2022110468         0000000030130939619RIVERA MONTECINOS KATHERINE ANDREA      INDEPENDENCIA 1376                      PUENTE ALTO         SANTIAGO            000002025000000005052022NN      
2022110468         0000000040130939619RIVERA MONTECINOS KATHERINE ANDREA      INDEPENDENCIA 1376                      PUENTE ALTO         SANTIAGO            000002025000000005062022NN      
2022110468         0000000050130939619RIVERA MONTECINOS KATHERINE ANDREA      INDEPENDENCIA 1376                      PUENTE ALTO         SANTIAGO            000002025000000005072022NN      
2022110468         0000000060130939619RIVERA MONTECINOS KATHERINE ANDREA      INDEPENDENCIA 1376                      PUENTE ALTO         SANTIAGO            000002025000000005082022NN      
2022110468         0000000070130939619RIVERA MONTECINOS KATHERINE ANDREA      INDEPENDENCIA 1376                      PUENTE ALTO         SANTIAGO            000002025000000005092022NN      
2022110468         0000000080130939619RIVERA MONTECINOS KATHERINE ANDREA      INDEPENDENCIA 1376                      PUENTE ALTO         SANTIAGO            000002025000000005102022NN      
2022110468         0000000090130939619RIVERA MONTECINOS KATHERINE ANDREA      INDEPENDENCIA 1376                      PUENTE ALTO         SANTIAGO            000002025000000005112022NN      
2022110468         0000000100130939619RIVERA MONTECINOS KATHERINE ANDREA      INDEPENDENCIA 1376                      PUENTE ALTO         SANTIAGO            000002025000000005122022NN      
2022110470         0000000010130452078CARO OBANDO LUIS FRANCISCO              PJE. CORDILLERA DE LA COSTA 2 CASA 842  PUENTE ALTO         SANTIAGO            000001110000000005032022NN      
2022110470         0000000020130452078CARO OBANDO LUIS FRANCISCO              PJE. CORDILLERA DE LA COSTA 2 CASA 842  PUENTE ALTO         SANTIAGO            000001110000000005042022NN      
2022110470         0000000030130452078CARO OBANDO LUIS FRANCISCO              PJE. CORDILLERA DE LA COSTA 2 CASA 842  PUENTE ALTO         SANTIAGO            000001110000000005052022NN      
2022110470         0000000040130452078CARO OBANDO LUIS FRANCISCO              PJE. CORDILLERA DE LA COSTA 2 CASA 842  PUENTE ALTO         SANTIAGO            000001110000000005062022NN      
2022110470         0000000050130452078CARO OBANDO LUIS FRANCISCO              PJE. CORDILLERA DE LA COSTA 2 CASA 842  PUENTE ALTO         SANTIAGO            000001110000000005072022NN      
2022110470         0000000060130452078CARO OBANDO LUIS FRANCISCO              PJE. CORDILLERA DE LA COSTA 2 CASA 842  PUENTE ALTO         SANTIAGO            000001110000000005082022NN      
2022110470         0000000070130452078CARO OBANDO LUIS FRANCISCO              PJE. CORDILLERA DE LA COSTA 2 CASA 842  PUENTE ALTO         SANTIAGO            000001110000000005092022NN      
2022110470         0000000080130452078CARO OBANDO LUIS FRANCISCO              PJE. CORDILLERA DE LA COSTA 2 CASA 842  PUENTE ALTO         SANTIAGO            000001110000000005102022NN      
2022110470         0000000090130452078CARO OBANDO LUIS FRANCISCO              PJE. CORDILLERA DE LA COSTA 2 CASA 842  PUENTE ALTO         SANTIAGO            000001110000000005112022NN      
2022110470         0000000100130452078CARO OBANDO LUIS FRANCISCO              PJE. CORDILLERA DE LA COSTA 2 CASA 842  PUENTE ALTO         SANTIAGO            000001110000000005122022NN      
2022110471         0000000010138361896VALDENEGRO OSORIO CAROL ANDREA          PJE. METZ SUR 1036                      PUENTE ALTO         SANTIAGO            000000444000000005032022NN      
2022110471         0000000020138361896VALDENEGRO OSORIO CAROL ANDREA          PJE. METZ SUR 1036                      PUENTE ALTO         SANTIAGO            000000444000000005042022NN      
2022110471         0000000030138361896VALDENEGRO OSORIO CAROL ANDREA          PJE. METZ SUR 1036                      PUENTE ALTO         SANTIAGO            000000444000000005052022NN      
2022110471         0000000040138361896VALDENEGRO OSORIO CAROL ANDREA          PJE. METZ SUR 1036                      PUENTE ALTO         SANTIAGO            000000444000000005062022NN      
2022110471         0000000050138361896VALDENEGRO OSORIO CAROL ANDREA          PJE. METZ SUR 1036                      PUENTE ALTO         SANTIAGO            000000444000000005072022NN      
2022110471         0000000060138361896VALDENEGRO OSORIO CAROL ANDREA          PJE. METZ SUR 1036                      PUENTE ALTO         SANTIAGO            000000444000000005082022NN      
2022110471         0000000070138361896VALDENEGRO OSORIO CAROL ANDREA          PJE. METZ SUR 1036                      PUENTE ALTO         SANTIAGO            000000444000000005092022NN      
2022110471         0000000080138361896VALDENEGRO OSORIO CAROL ANDREA          PJE. METZ SUR 1036                      PUENTE ALTO         SANTIAGO            000000444000000005102022NN      
2022110471         0000000090138361896VALDENEGRO OSORIO CAROL ANDREA          PJE. METZ SUR 1036                      PUENTE ALTO         SANTIAGO            000000444000000005112022NN      
2022110471         0000000100138361896VALDENEGRO OSORIO CAROL ANDREA          PJE. METZ SUR 1036                      PUENTE ALTO         SANTIAGO            000000444000000005122022NN      
2022110475         0000000010137193752PAVEZ MUÑOZ KAREN MILITZA               AV VICUÑA MACKENA 12017                 LA FLORIDA          SANTIAGO            000000999000000005032022NN      
2022110475         0000000020137193752PAVEZ MUÑOZ KAREN MILITZA               AV VICUÑA MACKENA 12017                 LA FLORIDA          SANTIAGO            000000999000000005042022NN      
2022110475         0000000030137193752PAVEZ MUÑOZ KAREN MILITZA               AV VICUÑA MACKENA 12017                 LA FLORIDA          SANTIAGO            000000999000000005052022NN      
2022110475         0000000040137193752PAVEZ MUÑOZ KAREN MILITZA               AV VICUÑA MACKENA 12017                 LA FLORIDA          SANTIAGO            000000999000000005062022NN      
2022110475         0000000050137193752PAVEZ MUÑOZ KAREN MILITZA               AV VICUÑA MACKENA 12017                 LA FLORIDA          SANTIAGO            000000999000000005072022NN      
2022110475         0000000060137193752PAVEZ MUÑOZ KAREN MILITZA               AV VICUÑA MACKENA 12017                 LA FLORIDA          SANTIAGO            000000999000000005082022NN      
2022110475         0000000070137193752PAVEZ MUÑOZ KAREN MILITZA               AV VICUÑA MACKENA 12017                 LA FLORIDA          SANTIAGO            000000999000000005092022NN      
2022110475         0000000080137193752PAVEZ MUÑOZ KAREN MILITZA               AV VICUÑA MACKENA 12017                 LA FLORIDA          SANTIAGO            000000999000000005102022NN      
2022110475         0000000090137193752PAVEZ MUÑOZ KAREN MILITZA               AV VICUÑA MACKENA 12017                 LA FLORIDA          SANTIAGO            000000999000000005112022NN      
2022110475         0000000100137193752PAVEZ MUÑOZ KAREN MILITZA               AV VICUÑA MACKENA 12017                 LA FLORIDA          SANTIAGO            000000999000000005122022NN      
2022110476         0000000010154453822HENRIQUEZ MARTINEZ ROSA ELSA            CORONEL SANTIAGO FERNÁNDEZ 594          PUENTE ALTO         SANTIAGO            000001110000000005032022NN      
2022110476         0000000020154453822HENRIQUEZ MARTINEZ ROSA ELSA            CORONEL SANTIAGO FERNÁNDEZ 594          PUENTE ALTO         SANTIAGO            000001110000000005042022NN      
2022110476         0000000030154453822HENRIQUEZ MARTINEZ ROSA ELSA            CORONEL SANTIAGO FERNÁNDEZ 594          PUENTE ALTO         SANTIAGO            000001110000000005052022NN      
2022110476         0000000040154453822HENRIQUEZ MARTINEZ ROSA ELSA            CORONEL SANTIAGO FERNÁNDEZ 594          PUENTE ALTO         SANTIAGO            000001110000000005062022NN      
2022110476         0000000050154453822HENRIQUEZ MARTINEZ ROSA ELSA            CORONEL SANTIAGO FERNÁNDEZ 594          PUENTE ALTO         SANTIAGO            000001110000000005072022NN      
2022110476         0000000060154453822HENRIQUEZ MARTINEZ ROSA ELSA            CORONEL SANTIAGO FERNÁNDEZ 594          PUENTE ALTO         SANTIAGO            000001110000000005082022NN      
2022110476         0000000070154453822HENRIQUEZ MARTINEZ ROSA ELSA            CORONEL SANTIAGO FERNÁNDEZ 594          PUENTE ALTO         SANTIAGO            000001110000000005092022NN      
2022110476         0000000080154453822HENRIQUEZ MARTINEZ ROSA ELSA            CORONEL SANTIAGO FERNÁNDEZ 594          PUENTE ALTO         SANTIAGO            000001110000000005102022NN      
2022110476         0000000090154453822HENRIQUEZ MARTINEZ ROSA ELSA            CORONEL SANTIAGO FERNÁNDEZ 594          PUENTE ALTO         SANTIAGO            000001110000000005112022NN      
2022110476         0000000100154453822HENRIQUEZ MARTINEZ ROSA ELSA            CORONEL SANTIAGO FERNÁNDEZ 594          PUENTE ALTO         SANTIAGO            000001110000000005122022NN      
2022110478         0000000010161317152MARTINEZ SAN MARTIN NATALY ESTEFANIA    LOMAS DEL SOL 03302                     PUENTE ALTO         SANTIAGO            000001110000000005032022NN      
2022110478         0000000020161317152MARTINEZ SAN MARTIN NATALY ESTEFANIA    LOMAS DEL SOL 03302                     PUENTE ALTO         SANTIAGO            000001110000000005042022NN      
2022110478         0000000030161317152MARTINEZ SAN MARTIN NATALY ESTEFANIA    LOMAS DEL SOL 03302                     PUENTE ALTO         SANTIAGO            000001110000000005052022NN      
2022110478         0000000040161317152MARTINEZ SAN MARTIN NATALY ESTEFANIA    LOMAS DEL SOL 03302                     PUENTE ALTO         SANTIAGO            000001110000000005062022NN      
2022110478         0000000050161317152MARTINEZ SAN MARTIN NATALY ESTEFANIA    LOMAS DEL SOL 03302                     PUENTE ALTO         SANTIAGO            000001110000000005072022NN      
2022110478         0000000060161317152MARTINEZ SAN MARTIN NATALY ESTEFANIA    LOMAS DEL SOL 03302                     PUENTE ALTO         SANTIAGO            000001110000000005082022NN      
2022110478         0000000070161317152MARTINEZ SAN MARTIN NATALY ESTEFANIA    LOMAS DEL SOL 03302                     PUENTE ALTO         SANTIAGO            000001110000000005092022NN      
2022110478         0000000080161317152MARTINEZ SAN MARTIN NATALY ESTEFANIA    LOMAS DEL SOL 03302                     PUENTE ALTO         SANTIAGO            000001110000000005102022NN      
2022110478         0000000090161317152MARTINEZ SAN MARTIN NATALY ESTEFANIA    LOMAS DEL SOL 03302                     PUENTE ALTO         SANTIAGO            000001110000000005112022NN      
2022110478         0000000100161317152MARTINEZ SAN MARTIN NATALY ESTEFANIA    LOMAS DEL SOL 03302                     PUENTE ALTO         SANTIAGO            000001110000000005122022NN      
2022110482         0000000010122838846PAILLACAN MOYA PATRICIA ALEJANDRA       SAN ALBERTO 01448                       PUENTE ALTO         SANTIAGO            000000555000000005032022NN      
2022110482         0000000020122838846PAILLACAN MOYA PATRICIA ALEJANDRA       SAN ALBERTO 01448                       PUENTE ALTO         SANTIAGO            000000555000000005042022NN      
2022110482         0000000030122838846PAILLACAN MOYA PATRICIA ALEJANDRA       SAN ALBERTO 01448                       PUENTE ALTO         SANTIAGO            000000555000000005052022NN      
2022110482         0000000040122838846PAILLACAN MOYA PATRICIA ALEJANDRA       SAN ALBERTO 01448                       PUENTE ALTO         SANTIAGO            000000555000000005062022NN      
2022110482         0000000050122838846PAILLACAN MOYA PATRICIA ALEJANDRA       SAN ALBERTO 01448                       PUENTE ALTO         SANTIAGO            000000555000000005072022NN      
2022110482         0000000060122838846PAILLACAN MOYA PATRICIA ALEJANDRA       SAN ALBERTO 01448                       PUENTE ALTO         SANTIAGO            000000555000000005082022NN      
2022110482         0000000070122838846PAILLACAN MOYA PATRICIA ALEJANDRA       SAN ALBERTO 01448                       PUENTE ALTO         SANTIAGO            000000555000000005092022NN      
2022110482         0000000080122838846PAILLACAN MOYA PATRICIA ALEJANDRA       SAN ALBERTO 01448                       PUENTE ALTO         SANTIAGO            000000555000000005102022NN      
2022110482         0000000090122838846PAILLACAN MOYA PATRICIA ALEJANDRA       SAN ALBERTO 01448                       PUENTE ALTO         SANTIAGO            000000555000000005112022NN      
2022110482         0000000100122838846PAILLACAN MOYA PATRICIA ALEJANDRA       SAN ALBERTO 01448                       PUENTE ALTO         SANTIAGO            000000555000000005122022NN      
2022110483         0000000010167412394FUENTES ORTEGA MARIA PAZ                METZ PONIENTE 2004                      PUENTE ALTO         SANTIAGO            000001110000000005032022NN      
2022110483         0000000020167412394FUENTES ORTEGA MARIA PAZ                METZ PONIENTE 2004                      PUENTE ALTO         SANTIAGO            000001110000000005042022NN      
2022110483         0000000030167412394FUENTES ORTEGA MARIA PAZ                METZ PONIENTE 2004                      PUENTE ALTO         SANTIAGO            000001110000000005052022NN      
2022110483         0000000040167412394FUENTES ORTEGA MARIA PAZ                METZ PONIENTE 2004                      PUENTE ALTO         SANTIAGO            000001110000000005062022NN      
2022110483         0000000050167412394FUENTES ORTEGA MARIA PAZ                METZ PONIENTE 2004                      PUENTE ALTO         SANTIAGO            000001110000000005072022NN      
2022110483         0000000060167412394FUENTES ORTEGA MARIA PAZ                METZ PONIENTE 2004                      PUENTE ALTO         SANTIAGO            000001110000000005082022NN      
2022110483         0000000070167412394FUENTES ORTEGA MARIA PAZ                METZ PONIENTE 2004                      PUENTE ALTO         SANTIAGO            000001110000000005092022NN      
2022110483         0000000080167412394FUENTES ORTEGA MARIA PAZ                METZ PONIENTE 2004                      PUENTE ALTO         SANTIAGO            000001110000000005102022NN      
2022110483         0000000090167412394FUENTES ORTEGA MARIA PAZ                METZ PONIENTE 2004                      PUENTE ALTO         SANTIAGO            000001110000000005112022NN      
